:100000000C9463000C948B000C948B000C948B006C
:100010000C948B000C948B000C948B000C948B0034
:100020000C948B000C948B000C948B000C948B0024
:100030000C948B000C948B000C948B000C948B0014
:100040000C9406060C948B000C94D4050C94AE050D
:100050000C948B000C948B000C948B000C948B00F4
:100060000C9450060C948B00000000002400270024
:100070002A0000000000250028002B0000000000DE
:1000800023002600290004040404040404040202DA
:100090000202020203030303030301020408102007
:1000A0004080010204081020010204081020000012
:1000B0000008000201000003040700000000000027
:1000C00000006F074F0B11241FBECFEFD8E0DEBF3B
:1000D000CDBF24E0A2E2B2E001C01D92A830B20779
:1000E000E1F712E0A0E0B1E0E8E9FBE102C0059031
:1000F0000D92A232B107D9F710E0C2E6D0E004C0F9
:100100002197FE010E94C70BC136D107C9F70E9493
:1001100016080C94BF0D0C94000008950895AF923A
:10012000BF92CF92DF92EF92FF920F931F93CF93E4
:10013000DF936C017B018B01040F151FEB015E0146
:10014000AE18BF08C017D10759F06991D601ED91DB
:10015000FC910190F081E02DC6010995892B79F77A
:10016000C501DF91CF911F910F91FF90EF90DF902C
:10017000CF90BF90AF900895FC01538D448D252FF3
:1001800030E0842F90E0821B930B541710F0CF9631
:10019000089501970895FC01918D828D981761F063
:1001A000A28DAE0FBF2FB11D5D968C91928D9F5F7A
:1001B0009F73928F90E008958FEF9FEF0895FC0159
:1001C000918D828D981731F0828DE80FF11D858D0C
:1001D00090E008958FEF9FEF0895FC01918D228D9F
:1001E000892F90E0805C9F4F821B91098F73992724
:1001F00008958FEE92E00E94ED0021E0892B09F432
:1002000020E0822F089580E090E0892B29F00E9461
:10021000F90081110C9400000895FC01A48DA80F31
:10022000B92FB11DA35ABF4F2C91848D90E0019638
:100230008F739927848FA689B7892C93A089B18958
:100240008C91837080648C93938D848D981306C0F9
:100250000288F389E02D80818F7D80830895EF925D
:10026000FF920F931F93CF93DF93EC0181E0888F70
:100270009B8D8C8D98131AC0E889F989808185FF40
:1002800015C09FB7F894EE89FF896083E889F989E2
:1002900080818370806480839FBF81E090E0DF91E4
:1002A000CF911F910F91FF90EF900895F62E0B8D37
:1002B00010E00F5F1F4F0F731127E02E8C8D8E11F2
:1002C0000CC00FB607FCFACFE889F989808185FF59
:1002D000F5CFCE010E940D01F1CFEB8DEC0FFD2F7C
:1002E000F11DE35AFF4FF0829FB7F8940B8FEA8914
:1002F000FB8980818062CFCFCF93DF93EC01888D23
:100300008823B9F0AA89BB89E889F9898C9185FD90
:1003100003C0808186FD0DC00FB607FCF7CF8C911E
:1003200085FFF2CF808185FFEDCFCE010E940D01C8
:10033000E9CFDF91CF910895833081F028F48130A7
:1003400099F08230A9F008958730A9F08830C9F07B
:100350008430B1F4809180008F7D03C08091800053
:100360008F7780938000089584B58F7784BD08953A
:1003700084B58F7DFBCF8091B0008F778093B000E4
:1003800008958091B0008F7DF9CFCF93DF93282F10
:1003900030E0F901E255FF4F8491F901E656FF4F35
:1003A000D491F901EA57FF4FC491CC23A1F08111F8
:1003B0000E949C01EC2FF0E0EE0FFF1FE458FF4F6E
:1003C000A591B491EC91ED2381E090E009F480E0F7
:1003D000DF91CF91089580E090E0FACF80910601FF
:1003E0000E94C5010197E1F0809107010E94C501BB
:1003F0008130910501F1809108010E94C5010197AA
:1004000091F0809109010E94C501019779F08091D6
:100410000A010E94C501019761F08FEF9FEF0895D7
:1004200090E080E0089582E090E0089583E090E01D
:10043000089584E090E008951F93CF93DF93282FD1
:1004400030E0F901E255FF4F8491F901E656FF4F84
:10045000D491F901EA57FF4FC491CC23A9F0162F8C
:1004600081110E949C01EC2FF0E0EE0FFF1FEE586F
:10047000FF4FA591B4918FB7F894EC91111108C07A
:10048000D095DE23DC938FBFDF91CF911F9108952C
:10049000DE2BF8CFCF93DF9390E0FC01E656FF4FC1
:1004A00024918A579F4FFC0184918823D1F090E0DA
:1004B000880F991FFC01E859FF4FA591B491FC01E9
:1004C000EE58FF4FC591D49161110EC09FB7F894BB
:1004D0008C91E22FE0958E238C932881E223E88390
:1004E0009FBFDF91CF9108958FB7F894EC91E22BE5
:1004F000EC938FBFF6CF3FB7F8948091D5029091DF
:10050000D602A091D702B091D80226B5A89B05C00B
:100510002F3F19F00196A11DB11D3FBFBA2FA92F82
:10052000982F8827BC01CD01620F711D811D911D7F
:1005300042E0660F771F881F991F4A95D1F70895EB
:100540008F929F92AF92BF92CF92DF92EF92FF92E3
:100550004B015C010E947B026B017C010E947B02CB
:100560006C197D098E099F09683E734081059105CC
:10057000A8F321E0821A9108A108B10888EEC80EFC
:1005800083E0D81EE11CF11C81149104A104B10484
:1005900029F7FF90EF90DF90CF90BF90AF909F90A2
:1005A0008F900895089520916302260F3327331FFB
:1005B00021323105ECF42091AC02FC0190E080E0A6
:1005C000243069F082E00895A09163022191AC018A
:1005D0004D5B5D4FA40FB52FB11D2C93019686176F
:1005E00098F380916302680F6093630280E008953E
:1005F00081E008951092AC0281E08093AB021092EA
:10060000860261E082E10E941C0261E083E10E94B7
:100610001C02E9EBF0E080818E7F808380818D7FFA
:10062000808388E48093B80085E48093BC000895BB
:10063000CF93DF9391E0909342028823B9F0C09169
:10064000B800D091BA008091BC008A7B8093BC0036
:1006500060E082E10E941C0260E083E10E941C02D3
:100660000E94FA02D093BA00C093B800DF91CF91F4
:1006700008950895E091E0028091DF02E81730F4D8
:10068000F0E0EE5DFD4F808190E008958FEF9FEFE9
:1006900008959091E0028091DF022FEF3FEF9817CD
:1006A00048F4E92FF0E0EE5DFD4F208130E09F5FE0
:1006B0009093E002C90108958091DF029091E002D9
:1006C000891B990B0895CF92DF92EF92FF920F93BF
:1006D0001F93CF93DF937C01CB018A012091B2025B
:1006E000222389F0EB016B01C40ED51ECC15DD056C
:1006F00069F06991D701ED91FC910190F081E02DB5
:10070000C7010995F3CF642F0E94D302C801DF917E
:10071000CF911F910F91FF90EF90DF90CF900895B0
:10072000CF93DF931F92CDB7DEB769832091B202DA
:100730002223F9F02091DD02203258F021E030E050
:10074000FC013383228390E080E00F90DF91CF9112
:1007500008958091DE02E82FF0E0ED54FD4F99817D
:1007600090838F5F8093DE028093DD0281E090E0D2
:10077000ECCF61E0CE0101960E94D302F7CFCF9279
:10078000DF92EF92FF920F931F93CF93DF93FC01C1
:10079000C48121E02093B202C093D3021092DE0202
:1007A0001092DD028385682B8CE893E00E94900311
:1007B000D091DD02D13208F092C00E947B026B0121
:1007C0007C018091AC02811165C082E08093AC0213
:1007D00081E08093AB028FEF8093AA021092A9026E
:1007E000D093A802A3EBB2E0E8E8F2E080E0D813EF
:1007F00085C01092870280918702CC0FC82BC093CE
:10080000870280918602813009F07CC010928602B6
:100810000E947B026B017C01809187028093BB0068
:100820008091AE029091AF02A091B002B091B1025E
:10083000892B8A2B8B2B99F00E947B020091AE02B0
:100840001091AF022091B0023091B1026C197D0974
:100850008E099F090617170728073907E0F18091CD
:10086000BC0083FDD9CF85EC8093BC000E947B0245
:100870006B017C018091AC02823009F445C080910B
:10088000AA028F3F61F18091AA02803241F18091EA
:10089000AA0225C08091AE029091AF02A091B00251
:1008A000B091B102892B8A2B8B2B09F48ACF0E943D
:1008B0007B020091AE021091AF022091B002309104
:1008C000B1026C197D098E099F09061717072807C1
:1008D000390708F076CF8091AD020E94180310927C
:1008E000DE021092DD021092B202DF91CF911F91D1
:1008F0000F91FF90EF90DF90CF9008959D9191938D
:100900008F5F75CF85EEB0CF8091AE029091AF0230
:10091000A091B002B091B102892B8A2B8B2B09F4E4
:10092000A9CF0E947B020091AE021091AF022091EC
:10093000B0023091B1026C197D098E099F0906172A
:1009400017072807390708F095CFC5CF90E080E05A
:1009500008950F931F93CF938C01C62F0E94BF035E
:100960006C2F6460C8010E94BF036C2F6B7FC801AD
:100970000E94BF0383EC90E00197F1F7CF911F91A4
:100980000F9108950F931F93CF93DF938C01D62F70
:10099000C42F607F642B0E94A90480E1D89FB0011E
:1009A00011246C2BC801DF91CF911F910F910C94F2
:1009B000A904CF93DF93CDB7DEB728970FB6F8948D
:1009C000DEBF0FBECDBF98E0E1E1F1E0DE011196A0
:1009D00001900D929A95E1F790910004961710F40A
:1009E0006FEF690F262F30E0220F331F41E050E0F8
:1009F0004C0F5D1F240F351FF9016081680F60687F
:100A000040E088EF93E028960FB6F894DEBF0FBE63
:100A1000CDBFDF91CF910C94C20440E061E088EF3C
:100A200093E00E94C2048BE39FE10197F1F70895E0
:100A300041E00E94C20481E090E00895FB01019032
:100A40000020E9F73197AF01461B570BDC01ED9110
:100A5000FC910280F381E02D0994EF92FF920F93B5
:100A60001F93CF93DF93EC017B01198218821B82C5
:100A70001A821D821C82FB0101900020E9F7319748
:100A80008F01061B170BB8016F5F7F4F90E080E06E
:100A90000E94F20C0097B9F0998388831B830A8324
:100AA0002C813D81232B11F4FC0110821D830C83CA
:100AB000B70188819981DF91CF911F910F91FF90AC
:100AC000EF900C94B80D88819981009711F00E94E5
:100AD000690C198218821D821C821B821A82DF9186
:100AE000CF911F910F91FF90EF90089585ED809326
:100AF000BC008091AE029091AF02A091B002B09183
:100B0000B1020796A11DB11D23E0B695A795979553
:100B100087952A95D1F72091BC0024FD03C010923F
:100B2000AC0208954091AE025091AF026091B002C4
:100B30007091B102452B462B472B69F30097A10515
:100B4000B10541F025E32A95F1F700000197A109CD
:100B5000B109E1CF8091AD020C9418031F920F925E
:100B60000FB60F9211242F933F934F935F936F9380
:100B70007F938F939F93AF93BF93EF93FF938FEEEA
:100B800092E00E940D01FF91EF91BF91AF919F9173
:100B90008F917F916F915F914F913F912F910F9026
:100BA0000FBE0F901F9018951F920F920FB60F92C5
:100BB00011242F938F939F93EF93FF93E091FF0264
:100BC000F09100038081E0910503F091060382FD1E
:100BD0001BC09081809108038F5F8F732091090360
:100BE000821741F0E0910803F0E0E151FD4F958F4D
:100BF00080930803FF91EF919F918F912F910F9018
:100C00000FBE0F901F9018958081F4CF1F920F9206
:100C10000FB60F9211242F933F938F939F93AF930F
:100C2000BF938091E1029091E202A091E302B09122
:100C3000E4023091D40223E0230F2D3758F50196BA
:100C4000A11DB11D2093D4028093E1029093E20292
:100C5000A093E302B093E4028091D5029091D60272
:100C6000A091D702B091D8020196A11DB11D809329
:100C7000D5029093D602A093D702B093D802BF9129
:100C8000AF919F918F913F912F910F900FBE0F9039
:100C90001F90189526E8230F0296A11DB11DD2CFF3
:100CA0001F920F920FB60F9211242F933F934F93E1
:100CB0005F936F937F938F939F93AF93BF93EF93C4
:100CC000FF938091B900887F803609F44AC0F0F51F
:100CD000883209F4A7C018F5803109F49BC0B8F434
:100CE000882309F4F9C0883009F494C0FF91EF918A
:100CF000BF91AF919F918F917F916F915F914F9134
:100D00003F912F910F900FBE0F901F901895883133
:100D100009F488C0803251F78093AA0214C080344D
:100D200009F49DC040F48033B9F38833F9F6809319
:100D3000AA0285ECB0C0803509F485C0883509F475
:100D400096C0883499F60E947605D0CF883909F488
:100D50008CC038F5883729F050F4883611F0803788
:100D600029F683E08093AC021092850257C0883840
:100D700009F47BC0803919F0803809F0B7CF809131
:100D80008502803208F071C0E091850281E08E0F0B
:100D9000809385028091BB00F0E0EB59FD4F80838A
:100DA0003DC0803B39F0E0F4803A09F479C0883ADC
:100DB00009F09CCF84E08093AC0210926402109200
:100DC0006302E091DB02F091DC02099580916302FD
:100DD00081110FC081E0809363021092430209C029
:100DE000803C09F4A6CF883C09F4A3CF883B09F0E6
:100DF0007DCFE091640281E08E0F80936402F0E089
:100E0000ED5BFD4F80818093BB00909164028091E7
:100E1000630229C0809187028093BB0085EC809398
:100E2000BC0064CF9091A9028091A802981758F550
:100E3000E091A90281E08E0F8093A902F0E0E857CB
:100E4000FD4F8081E9CFE091A90281E08E0F809370
:100E5000A9028091BB00F0E0E857FD4F808390919C
:100E6000A9028091A8029817C8F285E8D8CFE0912E
:100E7000A90281E08E0F8093A9028091BB00F0E06F
:100E8000E857FD4F80838091AB0281115CCF81E0F8
:100E90008093860284EA8093BC001092AC0226CF35
:100EA00085EC8093BC001092AC0280918502803268
:100EB00030F4E0918502F0E0EB59FD4F1082609133
:100EC000850270E0E091D902F091DA0285E692E0C5
:100ED0000995109285020ACF1092AA0234CFEFEE44
:100EE000F2E01382128288EE93E0A0E0B0E0848307
:100EF0009583A683B7832DE131E03183208325ECF0
:100F000030E03587248724EC30E03787268720ECD3
:100F100030E0318B208B21EC30E0338B228B22ECC4
:100F200030E0358B248B26EC30E0378B268B118E0E
:100F3000128E138E148EECE8F3E0138212828483F7
:100F40009583A683B7838FE291E091838083E8EF56
:100F5000F3E01382128281E491E09183808387E23F
:100F6000848384E1818784E08287138669E471E069
:100F700080EE93E00E942D0562E571E086EE93E03D
:100F80000E942D0561E671E08CEE93E00E942D0534
:100F900061E771E082EF93E00E942D056FE771E059
:100FA00088E993E00E942D056AE871E08EE993E0FC
:100FB0000E942D0565E971E084EA93E00E942D0509
:100FC00060EA71E08AEA93E00E942D0567EA71E029
:100FD00080EB93E00E942D0560E272E086EB93E0E7
:100FE0000E942D0560EA71E08CEB93E00E942D05D4
:100FF00067EA71E082EC93E00E942D0560E272E006
:1010000088EC93E00E942D056FEA71E08EEC93E08E
:101010000E942D056CEB71E084ED93E00E942D059C
:1010200069EC71E08AED93E00C942D05CF93DF938A
:10103000CDB7DEB7A1970FB6F894DEBF0FBECDBF18
:10104000789484B5826084BD84B5816084BD85B5A3
:10105000826085BD85B5816085BD80916E008160AF
:1010600080936E0010928100809181008260809355
:101070008100809181008160809381008091800057
:101080008160809380008091B10084608093B10082
:101090008091B00081608093B00080917A0084607C
:1010A00080937A0080917A00826080937A008091A8
:1010B0007A00816080937A0080917A0080688093C2
:1010C0007A001092C100E091FF02F091000382E0EB
:1010D0008083E091FB02F091FC021082E091FD021E
:1010E000F091FE028FEC808310920703E0910303DE
:1010F000F091040386E08083E0910103F091020304
:10110000808180618083E0910103F09102038081FE
:1011100088608083E0910103F09102038081806800
:101120008083E0910103F091020380818F7D8083B1
:1011300006E011E04BE0E42E41E0F42E60E0F8011F
:1011400081918F010E944A02E016F106B9F71092D0
:10115000E0021092DF021092DE021092DD020E9485
:10116000FA028DE890E09093DC028093DB028EE837
:1011700090E09093DA028093D9021092FD0380915F
:101180000204823018F098E09093FD0380930004ED
:1011900062E370E080E090E00E94A00260910304AE
:1011A00088EF93E00E94BF0368EE73E080E090E078
:1011B0000E94A00260E388EF93E00E94A9040BE480
:1011C00016E4C8010197F1F760E388EF93E00E940D
:1011D000A904C8010197F1F760E388EF93E00E944A
:1011E000A90483E592E00197F1F760E288EF93E0CC
:1011F0000E94A9046091FD03606240E088EF93E0E3
:101200000E94C20484E08093FE0340E06CE088EF1B
:1012100093E00E94C2040E940D0582E08093FF03C8
:1012200040E066E088EF93E00E94C20440E062E0A4
:1012300088EF93E00E94C2048BE39FE10197F1F7EE
:1012400088E08093030460E088EF93E00E94BF038E
:101250000E940D0560E080E00E94D90468ED71E015
:1012600088EF93E00E941E0561E083E00E94D904AC
:1012700068EE71E088EF93E00E941E0564EF71E074
:1012800080E090E00E94A0020E940D0560E080E0F6
:101290000E94D90460EF71E088EF93E00E941E0580
:1012A00062E080E00E94D90460E072E088EF93E0A1
:1012B0000E941E0563E080E00E94D90464E172E0B0
:1012C00088EF93E00E941E052FB7F8948091E10209
:1012D0009091E202A091E302B091E4022FBF8093CB
:1012E000EB029093EC02A093ED02B093EE0261E06A
:1012F00088E00E944A0261E089E00E944A029AE086
:10130000892E912CA12CB12C22E0E22EF12C33E07D
:10131000C32ED12C80E0682E80E0782E2FB7F89471
:101320008091E1029091E202A091E302B091E40287
:101330002FBF4091EB025091EC026091ED02709151
:10134000EE02841B950BA60BB70B89389341A105C0
:10135000B10558F18091E9029091EA0201969093CB
:10136000EA028093E902019701F50E940D0560E011
:1013700080E00E94D90460EF71E088EF93E00E9462
:101380001E0562E080E00E94D90460E072E088EF10
:1013900093E00E941E0563E080E00E94D90464E1AE
:1013A00072E088EF93E00E941E050E94EE01909388
:1013B000050180930401009102011091030180173F
:1013C000910709F4A3C062E370E080E090E00E941E
:1013D000A0020E94EE01909305018093040108177A
:1013E000190709F493C02FB7F8948091E102909106
:1013F000E202A091E302B091E4022FBF8093EB02DE
:101400009093EC02A093ED02B093EE021092EA02E8
:101410001092E9020091040110910501109303015B
:101420000093020117FD23C06091FE03862F8160A7
:101430008093FE03696040E088EF93E00E94C2045D
:101440000230110509F074C08091000190910101F2
:10145000019690930101809300011092E80210928E
:10146000E7020497CCF0D0920101C0920001809174
:101470000401909105018130910509F0BEC0809171
:10148000E7029091E8020196833091050CF4BFC009
:10149000F092E802E092E7020E940D0580910001BF
:1014A0009091010126E0289FF001299FF00D112461
:1014B000E052FC4F448155816081718188EF93E057
:1014C0000E948F0061E080E00E94D90480910001B9
:1014D0009091010142E1489FF001499FF00D1124D4
:1014E0002091E7023091E80246E0429FC001439F0D
:1014F000900D1124E80FF91FE856FC4F44815581E7
:101500006081718188EF93E00E948F0062E370E058
:1015100080E090E00E94A0026114710409F4FECE04
:101520000E94F900882309F4F9CE0E940000F2CE4F
:10153000012B09F09CCF809100019091010101974E
:1015400097FD40C090930101809300011092E80242
:101550001092E7022090000130900101032C000C52
:101560004408550857FE33C06DE28FEE92E00E94AA
:101570002F0122273327A9012219330944095509CC
:1015800019A28E010F5D1F4FCA01B901A501940177
:101590000E94A50B605DF80162938F012115310552
:1015A0004105510589F70115110529F0B8018FEEA4
:1015B00092E00E941E056EE172E08FEE92E00E94C2
:1015C0001E0555CF1092010110920001BFCFA2015C
:1015D000910119A28E010F5D1F4FCA01B901A5012A
:1015E00094010E94A50B605DF80162938F012115A3
:1015F00031054105510589F7D6CF8430910589F42D
:101600008091E7029091E802019797FD05C09093C1
:10161000E8028093E70240CF1092E8021092E702BE
:101620003BCF039709F038CF2091000130910101A1
:101630008091E5029091E60201969093E6028093F4
:10164000E502019731F42F5F3F4F30930101209362
:10165000000180910001909101018130910579F4A0
:101660008091E7029091E80261E0009721F00197F4
:1016700009F012CF60E088E00E941C020DCF0297B3
:1016800009F00ACF8091E7029091E80261E00097AB
:1016900021F0019709F000CF60E089E0EDCFCF9312
:1016A000DF93C0EED3E0269788819981009711F0EF
:1016B0000E94690C83E0C839D807A9F7C8EFD3E0C6
:1016C000269788819981009711F00E94690C83E028
:1016D000C03ED807A9F7DF91CF9108952F923F928E
:1016E0004F925F926F927F928F929F92AF92BF9232
:1016F000CF92DF92EF92FF920F931F93CF93DF93DE
:10170000CDB7DEB7CA1BDB0B0FB6F894DEBF0FBE3A
:10171000CDBF09942A88398848885F846E847D8487
:101720008C849B84AA84B984C884DF80EE80FD8089
:101730000C811B81AA81B981CE0FD11D0FB6F894FF
:10174000DEBF0FBECDBFED010895A1E21A2EAA1B88
:10175000BB1BFD010DC0AA1FBB1FEE1FFF1FA21761
:10176000B307E407F50720F0A21BB30BE40BF50B5E
:10177000661F771F881F991F1A9469F760957095E7
:10178000809590959B01AC01BD01CF010895EE0FAE
:10179000FF1F0590F491E02D09940F931F93CF93B1
:1017A000DF938230910510F482E090E0E09106042E
:1017B000F091070430E020E0B0E0A0E0309799F429
:1017C0002115310509F44AC0281B390B2430310595
:1017D000D8F58A819B816115710589F1FB0193839D
:1017E0008283FE0111C0408151810281138148171B
:1017F0005907E0F04817590799F4109761F01296CD
:101800000C93129713961C933296CF01DF91CF91D0
:101810001F910F9108950093060410930704F4CFCD
:101820002115310551F04217530738F0A901DB01AA
:101830009A01BD01DF01F801C1CFEF01F9CF90930B
:10184000070480930604CDCFFE01E20FF31F8193BE
:1018500091932250310939832883D7CF20910404F2
:1018600030910504232B41F420910D0130910E019C
:10187000309305042093040420910B0130910C0156
:101880002115310541F42DB73EB740910F0150911C
:101890001001241B350BE0910404F0910504E217BC
:1018A000F307A0F42E1B3F0B2817390778F0AC0183
:1018B0004E5F5F4F2417350748F04E0F5F1F509360
:1018C000050440930404819391939FCFF0E0E0E0FE
:1018D0009CCFCF93DF930097E9F0FC0132971382FE
:1018E0001282A0910604B0910704ED0130E020E0DF
:1018F0001097A1F420813181820F931F209104045D
:10190000309105042817390709F061C0F0930504E8
:10191000E0930404DF91CF910895EA01CE17DF0729
:10192000E8F54A815B819E0141155105B1F7E90156
:10193000FB83EA8349915991C40FD51FEC17FD072A
:1019400061F4808191810296840F951FE90199834A
:101950008883828193819B838A83F0E0E0E0129602
:101960008D919C9113970097B9F52D913C9111970A
:10197000CD010296820F931F20910404309105043B
:101980002817390739F6309751F51092070410924D
:101990000604B0930504A0930404BCCFD383C28390
:1019A00040815181840F951FC817D90761F44E5F9C
:1019B0005F4F88819981480F591F518340838A81E5
:1019C0009B81938382832115310509F0B0CFF09379
:1019D0000704E09306049ECFFD01DC01C0CF138213
:1019E0001282D7CFB0E0A0E0E8EFFCE00C94700BDF
:1019F0008C01009751F4CB010E94CD0B8C01C801E2
:101A0000CDB7DEB7E0E10C948C0BFC01E60FF71FBD
:101A10009C0122503109E217F30708F49DC0D90157
:101A2000CD91DC911197C617D70798F0C530D10535
:101A300030F3CE0104978617970708F3C61BD70B20
:101A40002297C193D1936D937C93CF010E94690C2F
:101A5000D6CF5B01AC1ABD0A4C018C0E9D1EA09125
:101A60000604B0910704512C412CF12CE12C109765
:101A700031F580910404909105048815990509F0C9
:101A80005CC04616570608F058C080910B01909133
:101A90000C01009741F48DB79EB740910F01509112
:101AA0001001841B950BE817F90708F055C0F09357
:101AB0000504E0930404F90171836083A0CF8D9144
:101AC0009C91119712966C90129713967C90139795
:101AD000A815B90559F56C0142E0C40ED11CCA1411
:101AE000DB0420F1AC014A195B09DA011296159763
:101AF00080F06282738251834083D9016D937C931D
:101B0000E114F10471F0D7011396FC93EE93129750
:101B100076CF22968C0F9D1FF90191838083F3016C
:101B2000EFCFF0930704E093060469CF48165906F7
:101B300008F42C017D01D3019ACFCB010E94CD0B7B
:101B40007C01009749F0AE01B8010E94AF0DC801B9
:101B50000E94690C870153CF10E000E050CFFB01D9
:101B6000DC0102C001900D9241505040D8F7089519
:101B7000FB01DC0101900D920020E1F7089510E0D7
:101B8000C2E6D0E004C0FE010E94C70B2196C33616
:081B9000D107C9F7F894FFCF5B
:101B9800FFFFFFFFFFFF02030405060000080480A3
:101BA800000000400014005400000000002F018FC6
:101BB80000BC007C01ED00CB00DF000000000090BD
:101BC800036303A60439035C0349033A03000000D6
:101BD8000018058F00A604D2022A494E4943494FEE
:101BE8002A002A454E43454E444552204C45442A36
:101BF800002A454E43454E444552204C4544322A1E
:101C0800002A494E54454752414E5445532A0053E1
:101C18007562206974656D2031005375622069749E
:101C2800656D203200537562206974656D2033003C
:101C38004C4544204F4E004C4544204F46460053E7
:101C4800657267696F204461766964004A756C69DA
:101C58006F2052616E67656C004A65737573204525
:101C68006D696C69616E6F002A4D656E75204C4315
:101C78004420323078342A0041726475696E6F00EE
:101C8800204D454E55205052494E434950414C0035
:101C98002050726573696F6E65206375616C71752C
:101CA80069657200207465636C612E2E2E000D0A22
:021CB80000002A
:00000001FF
