:100000000C9463000C948B000C948B000C948B006C
:100010000C948B000C948B000C948B000C948B0034
:100020000C948B000C948B000C948B000C948B0024
:100030000C948B000C948B000C948B000C948B0014
:100040000C94D5050C948B000C94A3050C947D05A1
:100050000C948B000C948B000C948B000C948B00F4
:100060000C941F060C948B00000000002300260057
:10007000290000000008000201000003040700003E
:1000800000000000000000000000250028002B00F8
:1000900000000000240027002A00040404040404D3
:1000A0000404020202020202030303030303010227
:1000B00004081020408001020408102001020408F6
:1000C00010203E07240B11241FBECFEFD8E0DEBF67
:1000D000CDBF23E0A2E1B2E001C01D92A03EB20775
:1000E000E1F712E0A0E0B1E0E2E4FBE102C005903C
:1000F0000D92A231B107D9F710E0C2E6D0E004C0FA
:100100002197FE010E949C0BC136D107C9F70E94BE
:10011000CD070C94940D0C94000008950895AF92AF
:10012000BF92CF92DF92EF92FF920F931F93CF93E4
:10013000DF936C017B018B01040F151FEB015E0146
:10014000AE18BF08C017D10759F06991D601ED91DB
:10015000FC910190F081E02DC6010995892B79F77A
:10016000C501DF91CF911F910F91FF90EF90DF902C
:10017000CF90BF90AF900895FC01538D448D252FF3
:1001800030E0842F90E0821B930B541710F0CF9631
:10019000089501970895FC01918D828D981761F063
:1001A000A28DAE0FBF2FB11D5D968C91928D9F5F7A
:1001B0009F73928F90E008958FEF9FEF0895FC0159
:1001C000918D828D981731F0828DE80FF11D858D0C
:1001D00090E008958FEF9FEF0895FC01918D228D9F
:1001E000892F90E0805C9F4F821B91098F73992724
:1001F00008958FED92E00E94ED0021E0892B09F433
:1002000020E0822F089580E090E0892B29F00E9461
:10021000F90081110C9400000895FC01A48DA80F31
:10022000B92FB11DA35ABF4F2C91848D90E0019638
:100230008F739927848FA689B7892C93A089B18958
:100240008C91837080648C93938D848D981306C0F9
:100250000288F389E02D80818F7D80830895EF925D
:10026000FF920F931F93CF93DF93EC0181E0888F70
:100270009B8D8C8D98131AC0E889F989808185FF40
:1002800015C09FB7F894EE89FF896083E889F989E2
:1002900080818370806480839FBF81E090E0DF91E4
:1002A000CF911F910F91FF90EF900895F62E0B8D37
:1002B00010E00F5F1F4F0F731127E02E8C8D8E11F2
:1002C0000CC00FB607FCFACFE889F989808185FF59
:1002D000F5CFCE010E940D01F1CFEB8DEC0FFD2F7C
:1002E000F11DE35AFF4FF0829FB7F8940B8FEA8914
:1002F000FB8980818062CFCFCF93DF93EC01888D23
:100300008823B9F0AA89BB89E889F9898C9185FD90
:1003100003C0808186FD0DC00FB607FCF7CF8C911E
:1003200085FFF2CF808185FFEDCFCE010E940D01C8
:10033000E9CFDF91CF910895833081F028F48130A7
:1003400099F08230A9F008958730A9F08830C9F07B
:100350008430B1F4809180008F7D03C08091800053
:100360008F7780938000089584B58F7784BD08953A
:1003700084B58F7DFBCF8091B0008F778093B000E4
:1003800008958091B0008F7DF9CFCF93DF93282F10
:1003900030E0F901EE58FF4F8491F901E255FF4F2B
:1003A000D491F901E656FF4FC491CC23A1F08111FD
:1003B0000E949C01EC2FF0E0EE0FFF1FE859FF4F69
:1003C000A591B491EC91ED2381E090E009F480E0F7
:1003D000DF91CF91089580E090E0FACF80910601FF
:1003E0000E94C5010197E1F0809107010E94C501BB
:1003F0008130910501F1809108010E94C5010197AA
:1004000091F0809109010E94C501019779F08091D6
:100410000A010E94C501019761F08FEF9FEF0895D7
:1004200090E080E0089582E090E0089583E090E01D
:10043000089584E090E008951F93CF93DF93282FD1
:1004400030E0F901EE58FF4F8491F901E255FF4F7A
:10045000D491F901E656FF4FC491CC23A9F0162F91
:1004600081110E949C01EC2FF0E0EE0FFF1FEA5774
:10047000FF4FA591B4918FB7F894EC91111108C07A
:10048000D095DE23DC938FBFDF91CF911F9108952C
:10049000DE2BF8CF3FB7F8948091C5029091C60249
:1004A000A091C702B091C80226B5A89B05C02F3FF6
:1004B00019F00196A11DB11D3FBFBA2FA92F982F8A
:1004C0008827BC01CD01620F711D811D911D42E085
:1004D000660F771F881F991F4A95D1F708958F924D
:1004E0009F92AF92BF92CF92DF92EF92FF924B0119
:1004F0005C010E944A026B017C010E944A026C1955
:100500007D098E099F09683E734081059105A8F316
:1005100021E0821A9108A108B10888EEC80E83E094
:10052000D81EE11CF11C81149104A104B10429F727
:10053000FF90EF90DF90CF90BF90AF909F908F9003
:100540000895089520915302260F3327331F213237
:100550003105ECF420919C02FC0190E080E0243015
:1005600069F082E00895A09153022191AC014D5CA5
:100570005D4FA40FB52FB11D2C930196861798F3EC
:1005800080915302680F6093530280E0089581E0E8
:10059000089510929C0281E080939B021092760253
:1005A00061E082E10E941C0261E083E10E941C0282
:1005B000E9EBF0E080818E7F808380818D7F808376
:1005C00088E48093B80085E48093BC000895CF93BD
:1005D000DF9391E0909332028823B9F0C091B80084
:1005E000D091BA008091BC008A7B8093BC0060E00F
:1005F00082E10E941C0260E083E10E941C020E94D2
:10060000C902D093BA00C093B800DF91CF9108958A
:100610000895E091D0028091CF02E81730F4F0E025
:10062000EE5EFD4F808190E008958FEF9FEF08957B
:100630009091D0028091CF022FEF3FEF981748F4AE
:10064000E92FF0E0EE5EFD4F208130E09F5F909358
:10065000D002C90108958091CF029091D002891BE8
:10066000990B0895CF92DF92EF92FF920F931F9311
:10067000CF93DF937C01CB018A012091A202222338
:1006800089F0EB016B01C40ED51ECC15DD0569F0B8
:100690006991D701ED91FC910190F081E02DC701A6
:1006A0000995F3CF642F0E94A202C801DF91CF9178
:1006B0001F910F91FF90EF90DF90CF900895CF930F
:1006C000DF931F92CDB7DEB769832091A202222368
:1006D000F9F02091CD02203258F021E030E0FC0109
:1006E0003383228390E080E00F90DF91CF910895D3
:1006F0008091CE02E82FF0E0ED55FD4F9981908377
:100700008F5F8093CE028093CD0281E090E0ECCFAA
:1007100061E0CE0101960E94A202F7CFCF92DF9254
:10072000EF92FF920F931F93CF93DF93FC01C4814D
:1007300021E02093A202C093C3021092CE02109235
:10074000CD028385682B8CE793E00E945F03D091F4
:10075000CD02D13208F092C00E944A026B017C01A6
:1007600080919C02811165C082E080939C0281E0AF
:1007700080939B028FEF80939A0210929902D093FC
:100780009802A3EAB2E0E8E7F2E080E0D81385C07F
:100790001092770280917702CC0FC82BC09377021A
:1007A00080917602813009F07CC0109276020E941E
:1007B0004A026B017C01809177028093BB0080919B
:1007C0009E0290919F02A091A002B091A102892B5C
:1007D0008A2B8B2B99F00E944A0200919E02109165
:1007E0009F022091A0023091A1026C197D098E090F
:1007F0009F090617170728073907E0F18091BC0009
:1008000083FDD9CF85EC8093BC000E944A026B0126
:100810007C0180919C02823009F445C080919A024B
:100820008F3F61F180919A02803241F180919A026A
:1008300025C080919E0290919F02A091A002B0914C
:10084000A102892B8A2B8B2B09F48ACF0E944A02A2
:1008500000919E0210919F022091A0023091A1026E
:100860006C197D098E099F09061717072807390794
:1008700008F076CF80919D020E94E7021092CE028E
:100880001092CD021092A202DF91CF911F910F9191
:10089000FF90EF90DF90CF9008959D9191938F5F9F
:1008A00075CF85EEB0CF80919E0290919F02A0916E
:1008B000A002B091A102892B8A2B8B2B09F4A9CF1E
:1008C0000E944A0200919E0210919F022091A00274
:1008D0003091A1026C197D098E099F09061717072F
:1008E0002807390708F095CFC5CF90E080E008953C
:1008F0000F931F93CF938C01C62F0E948E036C2FF2
:100900006460C8010E948E036C2F6B7FC8010E9437
:100910008E0383EC90E00197F1F7CF911F910F9137
:1009200008950F931F93CF93DF938C01D62FC42F7D
:10093000607F642B0E94780480E1D89FB00111246D
:100940006C2BC801DF91CF911F910F910C9478040B
:10095000CF93DF93CDB7DEB728970FB6F894DEBFFD
:100960000FBECDBF98E0E1E1F1E0DE01119601900C
:100970000D929A95E1F79091D803961710F46FEFC6
:10098000690F262F30E0220F331F41E050E04C0F5B
:100990005D1F240F351FF9016081680F606840E01A
:1009A00080ED93E028960FB6F894DEBF0FBECDBF62
:1009B000DF91CF910C94910440E061E080ED93E0F1
:1009C0000E9491048BE39FE10197F1F7089541E0C4
:1009D0000E94910481E090E00895FB0101900020C5
:1009E000E9F73197AF01461B570BDC01ED91FC9104
:1009F0000280F381E02D0994EF92FF920F931F93F1
:100A0000CF93DF93EC017B01198218821B821A823B
:100A10001D821C82FB0101900020E9F731978F01B4
:100A2000061B170BB8016F5F7F4F90E080E00E94BC
:100A3000C70C0097B9F0998388831B830A832C81A4
:100A40003D81232B11F4FC0110821D830C83B7011F
:100A500088819981DF91CF911F910F91FF90EF9045
:100A60000C948D0D88819981009711F00E943E0CA5
:100A7000198218821D821C821B821A82DF91CF91FB
:100A80001F910F91FF90EF90089585ED8093BC002A
:100A900080919E0290919F02A091A002B091A1022C
:100AA0000796A11DB11D23E0B695A795979587954B
:100AB0002A95D1F72091BC0024FD03C010929C021E
:100AC000089540919E0250919F026091A002709102
:100AD000A102452B462B472B69F30097A105B105D1
:100AE00041F025E32A95F1F700000197A109B1092A
:100AF000E1CF80919D020C94E7021F920F920FB6F6
:100B00000F9211242F933F934F935F936F937F9393
:100B10008F939F93AF93BF93EF93FF938FED92E0EB
:100B20000E940D01FF91EF91BF91AF919F918F9125
:100B30007F916F915F914F913F912F910F900FBED9
:100B40000F901F9018951F920F920FB60F921124BD
:100B50002F938F939F93EF93FF93E091EF02F09188
:100B6000F0028081E091F502F091F60282FD1BC057
:100B700090818091F8028F5F8F732091F902821724
:100B800041F0E091F802F0E0E152FD4F958F809343
:100B9000F802FF91EF919F918F912F910F900FBECF
:100BA0000F901F9018958081F4CF1F920F920FB66F
:100BB0000F9211242F933F938F939F93AF93BF93E3
:100BC0008091D1029091D202A091D302B091D4022F
:100BD0003091C40223E0230F2D3758F50196A11D53
:100BE000B11D2093C4028093D1029093D202A093AE
:100BF000D302B093D4028091C5029091C602A09115
:100C0000C702B091C8020196A11DB11D8093C50213
:100C10009093C602A093C702B093C802BF91AF9150
:100C20009F918F913F912F910F900FBE0F901F902A
:100C3000189526E8230F0296A11DB11DD2CF1F9251
:100C40000F920FB60F9211242F933F934F935F9300
:100C50006F937F938F939F93AF93BF93EF93FF9384
:100C60008091B900887F803609F44AC0F0F5883257
:100C700009F4A7C018F5803109F49BC0B8F48823A3
:100C800009F4F9C0883009F494C0FF91EF91BF9145
:100C9000AF919F918F917F916F915F914F913F9114
:100CA0002F910F900FBE0F901F901895883109F467
:100CB00088C0803251F780939A0214C0803409F4BE
:100CC0009DC040F48033B9F38833F9F680939A02DB
:100CD00085ECB0C0803509F485C0883509F496C02C
:100CE000883499F60E944505D0CF883909F48CC024
:100CF00038F5883729F050F4883611F0803729F616
:100D000083E080939C021092750257C0883809F4E2
:100D10007BC0803919F0803809F0B7CF8091750217
:100D2000803208F071C0E091750281E08E0F8093EF
:100D300075028091BB00F0E0EB5AFD4F80833DC00F
:100D4000803B39F0E0F4803A09F479C0883A09F040
:100D50009CCF84E080939C02109254021092530224
:100D6000E091CB02F091CC02099580915302811160
:100D70000FC081E0809353021092330209C0803C7F
:100D800009F4A6CF883C09F4A3CF883B09F07DCFB6
:100D9000E091540281E08E0F80935402F0E0ED5C0C
:100DA000FD4F80818093BB0090915402809153024B
:100DB00029C0809177028093BB0085EC8093BC00B2
:100DC00064CF9091990280919802981758F5E0911C
:100DD000990281E08E0F80939902F0E0E858FD4F70
:100DE0008081E9CFE091990281E08E0F8093990292
:100DF0008091BB00F0E0E858FD4F8083909199020C
:100E0000809198029817C8F285E8D8CFE0919902AE
:100E100081E08E0F809399028091BB00F0E0E8584A
:100E2000FD4F808380919B0281115CCF81E0809394
:100E3000760284EA8093BC0010929C0226CF85EC57
:100E40008093BC0010929C0280917502803230F435
:100E5000E0917502F0E0EB5AFD4F1082609175024F
:100E600070E0E091C902F091CA0285E592E009952F
:100E7000109275020ACF10929A0234CFEFEDF2E091
:100E80001382128288EE93E0A0E0B0E08483958321
:100E9000A683B7832DE131E03183208325EC30E058
:100EA0003587248724EC30E03787268720EC30E034
:100EB000318B208B21EC30E0338B228B22EC30E025
:100EC000358B248B26EC30E0378B268B118E128EDF
:100ED000138E148EECE7F3E01382128284839583E1
:100EE000A683B7838FE291E091838083E0EDF3E006
:100EF0001382128281E491E09183808387E284836C
:100F000084E1818784E08287138669E471E08EEB57
:100F100093E00E94FC0462E571E084EC93E00E949F
:100F2000FC0461E671E08AEC93E00E94FC046FE649
:100F300071E088E893E00E94FC046AE771E08EE8C3
:100F400093E00E94FC0465E871E084E993E00E946C
:100F5000FC0460E971E08AE993E00E94FC0467E91F
:100F600071E080EA93E00E94FC0460E172E086EAAE
:100F700093E00E94FC046FE971E08CEA93E00E9428
:100F8000FC046CEA71E082EB93E00E94FC0469EBE4
:100F900071E088EB93E00C94FC04CF93DF93CDB722
:100FA000DEB7A1970FB6F894DEBF0FBECDBF789421
:100FB00084B5826084BD84B5816084BD85B582605E
:100FC00085BD85B5816085BD80916E00816080930F
:100FD0006E00109281008091810082608093810078
:100FE0008091810081608093810080918000816088
:100FF000809380008091B10084608093B1008091E3
:10100000B00081608093B00080917A00846080930A
:101010007A0080917A00826080937A0080917A00D1
:10102000816080937A0080917A00806880937A0052
:101030001092C100E091EF02F091F00282E0808313
:10104000E091EB02F091EC021082E091ED02F09160
:10105000EE028FEC80831092F702E091F302F091A0
:10106000F40286E08083E091F102F091F202808147
:1010700080618083E091F102F091F20280818860CA
:101080008083E091F102F091F20280818068808398
:10109000E091F102F091F20280818F7D8083A6E0E1
:1010A000B1E02BE031E08D9190E0FC01E255FF4F83
:1010B000449186569F4FFC0184918823C9F090E0AB
:1010C000880F991FFC01E057FF4F65917491FC0157
:1010D000EA57FF4F059114919FB7F894FB01808167
:1010E000409584238083F8018081842380839FBF7F
:1010F0002A173B07C1F61092D0021092CF0210922D
:10110000CE021092CD020E94C9028DE890E0909329
:10111000CC028093CB028EE890E09093CA02809339
:10112000C9021092D5038091DA03823018F098E05A
:101130009093D5038093D80362E370E080E090E061
:101140000E946F026091DB0380ED93E00E948E03AA
:1011500068EE73E080E090E00E946F0260E380ED53
:1011600093E00E9478040BE416E4C8010197F1F7BC
:1011700060E380ED93E00E947804C8010197F1F7E5
:1011800060E380ED93E00E94780483E592E00197AC
:10119000F1F760E280ED93E00E9478046091D5035E
:1011A000606240E080ED93E00E94910484E08093CF
:1011B000D60340E06CE080ED93E00E9491040E9431
:1011C000DC0482E08093D70340E066E080ED93E0AA
:1011D0000E94910440E062E080ED93E00E9491045F
:1011E0008BE39FE10197F1F788E08093DB0360E0F8
:1011F00080ED93E00E948E030E94DC0460E080E0BA
:101200000E94A80468EC71E080ED93E00E94ED0478
:1012100061E083E00E94A80468ED71E080ED93E056
:101220000E94ED0464EF71E080E090E00E946F02A4
:101230000E94DC0460E080E00E94A80460EE71E09F
:1012400080ED93E00E94ED0462E080E00E94A8043B
:1012500060EF71E080ED93E00E94ED0463E080E0D8
:101260000E94A80464E072E080ED93E00E94ED0427
:101270002FB7F8948091D1029091D202A091D3021D
:10128000B091D4022FBF8093DB029093DC02A09335
:10129000DD02B093DE02E6EBF0E02491E2EAF0E05A
:1012A0008491882399F090E0880F991FFC01E05702
:1012B000FF4FA591B491FC01EA57FF4F859194919E
:1012C0008FB7F894EC91E22BEC938FBF86E0782EE9
:1012D00092E1692E2AE0822E912CA12CB12C30E0D3
:1012E000E32E30E0F32E42E0C42ED12C2FB7F89439
:1012F0008091D1029091D202A091D302B091D402F8
:101300002FBF4091DB025091DC026091DD027091B1
:10131000DE02841B950BA60BB70B89389341A10500
:10132000B10558F18091D9029091DA02019690931B
:10133000DA028093D902019701F50E94DC0460E093
:1013400080E00E94A80460EE71E080ED93E00E94CE
:10135000ED0462E080E00E94A80460EF71E080ED9F
:1013600093E00E94ED0463E080E00E94A80464E042
:1013700072E080ED93E00E94ED040E94EE019093F4
:10138000050180930401009102011091030180176F
:10139000910709F4A0C062E370E080E090E00E9451
:1013A0006F020E94EE0190930501809304010817DB
:1013B000190709F490C02FB7F8948091D102909149
:1013C000D202A091D302B091D4022FBF8093DB024E
:1013D0009093DC02A093DD02B093DE021092DA0259
:1013E0001092D9020091040110910501109303019C
:1013F0000093020117FD23C06091D603862F816000
:101400008093D603696040E080ED93E00E949104F0
:101410000230110509F071C0809100019091010125
:10142000019690930101809300011092D8021092CE
:10143000D7020397CCF01093010100930001809133
:101440000401909105018130910509F0BBC08091A4
:10145000D7029091D8020196833091050CF4BCC05C
:10146000D092D802C092D7020E94DC048091000181
:1014700090910101789EF001799EF00D1124E254C3
:10148000FC4F448155816081718180ED93E00E9421
:101490008F0061E080E00E94A8048091D7029091C3
:1014A000D802789EF001799EF00D11242091000160
:1014B00030910101629EC001639E900D1124E80FDE
:1014C000F91FE857FC4F448155816081718180ED9F
:1014D00093E00E948F0062E370E080E090E00E9461
:1014E0006F02E114F10409F401CF0E94F90088238E
:1014F00009F4FCCE0E940000F9CE012B09F09FCF29
:101500008091000190910101019797FD40C0909357
:101510000101809300011092D8021092D70220900E
:10152000000130900101032C000C4408550857FEBF
:1015300033C06DE28FED92E00E942F012227332706
:10154000A901221933094409550919A28E010F5D19
:101550001F4FCA01B901A50194010E947A0B605D79
:10156000F80162938F01211531054105510589F775
:101570000115110529F0B8018FED92E00E94ED04EC
:101580006EE072E08FED92E00E94ED0458CF109271
:10159000010110920001BFCFA201910119A28E0199
:1015A0000F5D1F4FCA01B901A50194010E947A0B7A
:1015B000605DF80162938F012115310541055105E8
:1015C00089F7D6CF8430910589F48091D702909124
:1015D000D802019797FD05C09093D8028093D70257
:1015E00043CF1092D8021092D7023ECF039709F052
:1015F0003BCF20910001309101018091D502909163
:10160000D60201969093D6028093D502019731F4C9
:101610002F5F3F4F30930101209300018091000123
:1016200090910101019709F01FCF8091D70290910D
:10163000D80261E0009721F0019709F015CF60E032
:1016400088E00E941C0210CFCF93DF93CEEBD3E053
:10165000269788819981009711F00E943E0C83E0C3
:10166000C838D807A9F7C0EDD3E0269788819981BB
:10167000009711F00E943E0C83E0CE3BD807A9F7FB
:10168000DF91CF9108952F923F924F925F926F9288
:101690007F928F929F92AF92BF92CF92DF92EF9202
:1016A000FF920F931F93CF93DF93CDB7DEB7CA1B83
:1016B000DB0B0FB6F894DEBF0FBECDBF09942A88AE
:1016C000398848885F846E847D848C849B84AA8456
:1016D000B984C884DF80EE80FD800C811B81AA81E3
:1016E000B981CE0FD11D0FB6F894DEBF0FBECDBFAE
:1016F000ED010895A1E21A2EAA1BBB1BFD010DC02E
:10170000AA1FBB1FEE1FFF1FA217B307E407F507B1
:1017100020F0A21BB30BE40BF50B661F771F881F8D
:10172000991F1A9469F760957095809590959B0123
:10173000AC01BD01CF010895EE0FFF1F0590F4919C
:10174000E02D09940F931F93CF93DF93823091057F
:1017500010F482E090E0E091DE03F091DF0330E0EE
:1017600020E0B0E0A0E0309799F42115310509F4AC
:101770004AC0281B390B24303105D8F58A819B815A
:101780006115710589F1FB0193838283FE0111C00C
:10179000408151810281138148175907E0F04817B1
:1017A000590799F4109761F012960C9312971396BB
:1017B0001C933296CF01DF91CF911F910F91089525
:1017C0000093DE031093DF03F4CF2115310551F0B0
:1017D0004217530738F0A901DB019A01BD01DF016F
:1017E000F801C1CFEF01F9CF9093DF038093DE03BF
:1017F000CDCFFE01E20FF31F819391932250310967
:1018000039832883D7CF2091DC033091DD03232B4C
:1018100041F420910D0130910E013093DD032093AE
:10182000DC0320910B0130910C012115310541F4AD
:101830002DB73EB740910F0150911001241B350B7D
:10184000E091DC03F091DD03E217F307A0F42E1B17
:101850003F0B2817390778F0AC014E5F5F4F241714
:10186000350748F04E0F5F1F5093DD034093DC03B4
:10187000819391939FCFF0E0E0E09CCFCF93DF93F3
:101880000097E9F0FC01329713821282A091DE03E7
:10189000B091DF03ED0130E020E01097A1F420814A
:1018A0003181820F931F2091DC033091DD032817D3
:1018B000390709F061C0F093DD03E093DC03DF91A9
:1018C000CF910895EA01CE17DF07E8F54A815B81E1
:1018D0009E0141155105B1F7E901FB83EA83499166
:1018E0005991C40FD51FEC17FD0761F480819181D8
:1018F0000296840F951FE9019983888382819381E1
:101900009B838A83F0E0E0E012968D919C9113977F
:101910000097B9F52D913C911197CD010296820F58
:10192000931F2091DC033091DD032817390739F626
:10193000309751F51092DF031092DE03B093DD0370
:10194000A093DC03BCCFD383C28340815181840F39
:10195000951FC817D90761F44E5F5F4F8881998141
:10196000480F591F518340838A819B8193838283CF
:101970002115310509F0B0CFF093DF03E093DE03CA
:101980009ECFFD01DC01C0CF13821282D7CFB0E021
:10199000A0E0EDECFCE00C94450B8C01009751F4B9
:1019A000CB010E94A20B8C01C801CDB7DEB7E0E1EC
:1019B0000C94610BFC01E60FF71F9C0122503109CA
:1019C000E217F30708F49DC0D901CD91DC9111977E
:1019D000C617D70798F0C530D10530F3CE0104976C
:1019E0008617970708F3C61BD70B2297C193D1938D
:1019F0006D937C93CF010E943E0CD6CF5B01AC1A55
:101A0000BD0A4C018C0E9D1EA091DE03B091DF0338
:101A1000512C412CF12CE12C109731F58091DC03F5
:101A20009091DD038815990509F05CC046165706AC
:101A300008F058C080910B0190910C01009741F47F
:101A40008DB79EB740910F0150911001841B950BEB
:101A5000E817F90708F055C0F093DD03E093DC03C5
:101A6000F90171836083A0CF8D919C91119712969B
:101A70006C90129713967C901397A815B90559F599
:101A80006C0142E0C40ED11CCA14DB0420F1AC018D
:101A90004A195B09DA011296159780F06282738207
:101AA00051834083D9016D937C93E114F10471F06B
:101AB000D7011396FC93EE93129776CF22968C0F54
:101AC0009D1FF90191838083F301EFCFF093DF0332
:101AD000E093DE0369CF4816590608F42C017D0116
:101AE000D3019ACFCB010E94A20B7C01009749F051
:101AF000AE01B8010E94840DC8010E943E0C87010E
:101B000053CF10E000E050CFFB01DC0102C0019098
:101B10000D9241505040D8F70895FB01DC0101902F
:101B20000D920020E1F7089510E0C2E6D0E004C075
:101B3000FE010E949C0B2196C336D107C9F7F89489
:021B4000FFCFD5
:101B4200FFFFFFFFFFFF02030405060000E0038022
:101B5200000000400014005400000000002F018F1C
:101B620000BC007C01ED00CB00DF00000000005F44
:101B7200033203750408032B031803090300000052
:101B820000E7048F007504A1022A494E4943494FD8
:101B92002A002A454E43454E444552204C45442A8C
:101BA200002A494E54454752414E5445532A005348
:101BB2007562206974656D20310053756220697405
:101BC200656D203200537562206974656D203300A3
:101BD2004C4544204F4E004C4544204F464600534E
:101BE200657267696F204461766964004A756C6941
:101BF2006F2052616E67656C004A6573757320458C
:101C02006D696C69616E6F002A4D656E75204C437B
:101C12004420323078342A0041726475696E6F0054
:101C2200204D454E55205052494E434950414C009B
:101C32002050726573696F6E65206375616C717592
:101C420069657200207465636C612E2E2E000D0A88
:021C5200000090
:00000001FF
