:100000000C9463000C948B000C948B000C948B006C
:100010000C948B000C948B000C948B000C948B0034
:100020000C948B000C948B000C948B000C948B0024
:100030000C948B000C948B000C948B000C948B0014
:100040000C940B060C948B000C94D9050C94B305FE
:100050000C948B000C948B000C948B000C948B00F4
:100060000C9455060C948B0000000000240027001F
:100070002A0000000000250028002B0000000000DE
:1000800023002600290004040404040404040202DA
:100090000202020203030303030301020408102007
:1000A0004080010204081020010204081020000012
:1000B0000008000201000003040700000000000027
:1000C00000007407810B11241FBECFEFD8E0DEBF04
:1000D000CDBF24E0A0E6B2E001C01D92AA34B20771
:1000E000E1F712E0A0E0B1E0ECEFFBE102C0059027
:1000F0000D92A036B107D9F710E0C2E6D0E004C0F7
:100100002197FE010E94F90BC136D107C9F70E9461
:100110001B080C94F10D0C94000008950895AF9203
:10012000BF92CF92DF92EF92FF920F931F93CF93E4
:10013000DF936C017B018B01040F151FEB015E0146
:10014000AE18BF08C017D10759F06991D601ED91DB
:10015000FC910190F081E02DC6010995892B79F77A
:10016000C501DF91CF911F910F91FF90EF90DF902C
:10017000CF90BF90AF900895FC01538D448D252FF3
:1001800030E0842F90E0821B930B541710F0CF9631
:10019000089501970895FC01918D828D981761F063
:1001A000A28DAE0FBF2FB11D5D968C91928D9F5F7A
:1001B0009F73928F90E008958FEF9FEF0895FC0159
:1001C000918D828D981731F0828DE80FF11D858D0C
:1001D00090E008958FEF9FEF0895FC01918D228D9F
:1001E000892F90E0805C9F4F821B91098F73992724
:1001F000089581E393E00E94ED0021E0892B09F44A
:1002000020E0822F089580E090E0892B29F00E9461
:10021000F90081110C9400000895FC01A48DA80F31
:10022000B92FB11DA35ABF4F2C91848D90E0019638
:100230008F739927848FA689B7892C93A089B18958
:100240008C91837080648C93938D848D981306C0F9
:100250000288F389E02D80818F7D80830895EF925D
:10026000FF920F931F93CF93DF93EC0181E0888F70
:100270009B8D8C8D98131AC0E889F989808185FF40
:1002800015C09FB7F894EE89FF896083E889F989E2
:1002900080818370806480839FBF81E090E0DF91E4
:1002A000CF911F910F91FF90EF900895F62E0B8D37
:1002B00010E00F5F1F4F0F731127E02E8C8D8E11F2
:1002C0000CC00FB607FCFACFE889F989808185FF59
:1002D000F5CFCE010E940D01F1CFEB8DEC0FFD2F7C
:1002E000F11DE35AFF4FF0829FB7F8940B8FEA8914
:1002F000FB8980818062CFCFCF93DF93EC01888D23
:100300008823B9F0AA89BB89E889F9898C9185FD90
:1003100003C0808186FD0DC00FB607FCF7CF8C911E
:1003200085FFF2CF808185FFEDCFCE010E940D01C8
:10033000E9CFDF91CF910895833081F028F48130A7
:1003400099F08230A9F008958730A9F08830C9F07B
:100350008430B1F4809180008F7D03C08091800053
:100360008F7780938000089584B58F7784BD08953A
:1003700084B58F7DFBCF8091B0008F778093B000E4
:1003800008958091B0008F7DF9CFCF93DF93282F10
:1003900030E0F901E255FF4F8491F901E656FF4F35
:1003A000D491F901EA57FF4FC491CC23A1F08111F8
:1003B0000E949C01EC2FF0E0EE0FFF1FE458FF4F6E
:1003C000A591B491EC91ED2381E090E009F480E0F7
:1003D000DF91CF91089580E090E0FACF80910601FF
:1003E0000E94C5010197E1F0809107010E94C501BB
:1003F0008130910501F1809108010E94C5010197AA
:1004000091F0809109010E94C501019779F08091D6
:100410000A010E94C501019761F08FEF9FEF0895D7
:1004200090E080E0089582E090E0089583E090E01D
:10043000089584E090E008951F93CF93DF93282FD1
:1004400030E0F901E255FF4F8491F901E656FF4F84
:10045000D491F901EA57FF4FC491CC23A9F0162F8C
:1004600081110E949C01EC2FF0E0EE0FFF1FEE586F
:10047000FF4FA591B4918FB7F894EC91111108C07A
:10048000D095DE23DC938FBFDF91CF911F9108952C
:10049000DE2BF8CFCF93DF9390E0FC01E656FF4FC1
:1004A00024918A579F4FFC0184918823D1F090E0DA
:1004B000880F991FFC01E859FF4FA591B491FC01E9
:1004C000EE58FF4FC591D49161110EC09FB7F894BB
:1004D0008C91E22FE0958E238C932881E223E88390
:1004E0009FBFDF91CF9108958FB7F894EC91E22BE5
:1004F000EC938FBFF6CF3FB7F894809113039091A0
:100500001403A0911503B091160326B5A89B05C04E
:100510002F3F19F00196A11DB11D3FBFBA2FA92F82
:10052000982F8827BC01CD01620F711D811D911D7F
:1005300042E0660F771F881F991F4A95D1F70895EB
:100540008F929F92AF92BF92CF92DF92EF92FF92E3
:100550004B015C010E947B026B017C010E947B02CB
:100560006C197D098E099F09683E734081059105CC
:10057000A8F321E0821A9108A108B10888EEC80EFC
:1005800083E0D81EE11CF11C81149104A104B10484
:1005900029F7FF90EF90DF90CF90BF90AF909F90A2
:1005A0008F90089508952091A102260F3327331FBD
:1005B00021323105ECF42091EA02FC0190E080E068
:1005C000243069F082E00895A091A1022191AC014C
:1005D0004F575D4FA40FB52FB11D2C930196861771
:1005E00098F38091A102680F6093A10280E00895C2
:1005F00081E008951092EA0281E08093E90210926E
:10060000C40261E082E10E941C0261E083E10E9479
:100610001C02E9EBF0E080818E7F808380818D7FFA
:10062000808388E48093B80085E48093BC000895BB
:10063000CF93DF9391E0909380028823B9F0C0912B
:10064000B800D091BA008091BC008A7B8093BC0036
:1006500060E082E10E941C0260E083E10E941C02D3
:100660000E94FA02D093BA00C093B800DF91CF91F4
:1006700008950895E0911E0380911D03E81730F45A
:10068000F0E0E05AFD4F808190E008958FEF9FEFFA
:10069000089590911E0380911D032FEF3FEF98174F
:1006A00048F4E92FF0E0E05AFD4F208130E09F5FF1
:1006B00090931E03C901089580911D0390911E031C
:1006C000891B990B0895CF92DF92EF92FF920F93BF
:1006D0001F93CF93DF937C01CB018A012091F0021D
:1006E000222389F0EB016B01C40ED51ECC15DD056C
:1006F00069F06991D701ED91FC910190F081E02DB5
:10070000C7010995F3CF642F0E94D302C801DF917E
:10071000CF911F910F91FF90EF90DF90CF900895B0
:10072000CF93DF931F92CDB7DEB769832091F0029C
:100730002223F9F020911B03203258F021E030E011
:10074000FC013383228390E080E00F90DF91CF9112
:10075000089580911C03E82FF0E0EF50FD4F998140
:1007600090838F5F80931C0380931B0381E090E054
:10077000ECCF61E0CE0101960E94D302F7CFCF9279
:10078000DF92EF92FF920F931F93CF93DF93FC01C1
:10079000C48121E02093F002C093110310921C0346
:1007A00010921B038385682B8EEC93E00E949003CC
:1007B000D0911B03D13208F092C00E947B026B01E2
:1007C0007C018091EA02811165C082E08093EA0297
:1007D00081E08093E9028FEF8093E8021092E702B4
:1007E000D093E602A1EFB2E0E6ECF2E080E0D813AD
:1007F00085C01092C5028091C502CC0FC82BC09352
:10080000C5028091C402813009F07CC01092C402FC
:100810000E947B026B017C018091C5028093BB002A
:100820008091EC029091ED02A091EE02B091EF0266
:10083000892B8A2B8B2B99F00E947B020091EC0272
:100840001091ED022091EE023091EF026C197D09BA
:100850008E099F090617170728073907E0F18091CD
:10086000BC0083FDD9CF85EC8093BC000E947B0245
:100870006B017C018091EA02823009F445C08091CD
:10088000E8028F3F61F18091E802803241F180916E
:10089000E80225C08091EC029091ED02A091EE0259
:1008A000B091EF02892B8A2B8B2B09F48ACF0E94FF
:1008B0007B020091EC021091ED022091EE0230914A
:1008C000EF026C197D098E099F0906171707280783
:1008D000390708F076CF8091EB020E94180310923E
:1008E0001C0310921B031092F002DF91CF911F9115
:1008F0000F91FF90EF90DF90CF9008959D9191938D
:100900008F5F75CF85EEB0CF8091EC029091ED02B4
:10091000A091EE02B091EF02892B8A2B8B2B09F468
:10092000A9CF0E947B020091EC021091ED02209170
:10093000EE023091EF026C197D098E099F090617AE
:1009400017072807390708F095CFC5CF90E080E05A
:1009500008950F931F93CF938C01C62F0E94BF035E
:100960006C2F6460C8010E94BF036C2F6B7FC801AD
:100970000E94BF0383EC90E00197F1F7CF911F91A4
:100980000F9108950F931F93CF93DF938C01D62F70
:10099000C42F607F642B0E94A90480E1D89FB0011E
:1009A00011246C2BC801DF91CF911F910F910C94F2
:1009B000A904CF93DF93CDB7DEB728970FB6F8948D
:1009C000DEBF0FBECDBF98E0E1E1F1E0DE011196A0
:1009D00001900D929A95E1F790914204961710F4C8
:1009E0006FEF690F262F30E0220F331F41E050E0F8
:1009F0004C0F5D1F240F351FF9016081680F60687F
:100A000040E08AE394E028960FB6F894DEBF0FBE6C
:100A1000CDBFDF91CF910C94C20440E061E08AE346
:100A200094E00E94C2048BE39FE10197F1F70895DF
:100A300041E00E94C20481E090E00895FB01019032
:100A40000020E9F73197AF01461B570BDC01ED9110
:100A5000FC910280F381E02D0994BC018AE394E0CB
:100A60000C941E05EF92FF920F931F93CF93DF9389
:100A7000EC017B01198218821B821A821D821C8262
:100A8000FB0101900020E9F731978F01061B170B3E
:100A9000B8016F5F7F4F90E080E00E94240D0097C7
:100AA000B9F0998388831B830A832C813D81232B92
:100AB00011F4FC0110821D830C83B7018881998198
:100AC000DF91CF911F910F91FF90EF900C94EA0D61
:100AD00088819981009711F00E949B0C19821882DD
:100AE0001D821C821B821A82DF91CF911F910F9170
:100AF000FF90EF90089585ED8093BC008091EC020B
:100B00009091ED02A091EE02B091EF020796A11D27
:100B1000B11D23E0B695A795979587952A95D1F7AE
:100B20002091BC0024FD03C01092EA020895409178
:100B3000EC025091ED026091EE027091EF02452BB4
:100B4000462B472B69F30097A105B10541F025E33A
:100B50002A95F1F700000197A109B109E1CF809131
:100B6000EB020C9418031F920F920FB60F921124F0
:100B70002F933F934F935F936F937F938F939F93A5
:100B8000AF93BF93EF93FF9381E393E00E940D0136
:100B9000FF91EF91BF91AF919F918F917F916F9155
:100BA0005F914F913F912F910F900FBE0F901F902B
:100BB00018951F920F920FB60F9211242F938F93B7
:100BC0009F93EF93FF93E0914103F0914203808163
:100BD000E0914703F091480382FD1BC09081809112
:100BE0004A038F5F8F7320914B03821741F0E0918E
:100BF0004A03F0E0EF5CFC4F958F80934A03FF912E
:100C0000EF919F918F912F910F900FBE0F901F909A
:100C100018958081F4CF1F920F920FB60F92112476
:100C20002F933F938F939F93AF93BF9380911F0315
:100C300090912003A0912103B091220330911203DF
:100C400023E0230F2D3758F50196A11DB11D2093E8
:100C5000120380931F0390932003A0932103B0936A
:100C600022038091130390911403A0911503B09176
:100C700016030196A11DB11D8093130390931403D5
:100C8000A0931503B0931603BF91AF919F918F91DD
:100C90003F912F910F900FBE0F901F90189526E84F
:100CA000230F0296A11DB11DD2CF1F920F920FB636
:100CB0000F9211242F933F934F935F936F937F93E2
:100CC0008F939F93AF93BF93EF93FF938091B9005E
:100CD000887F803609F44AC0F0F5883209F4A7C04D
:100CE00018F5803109F49BC0B8F4882309F4F9C0E1
:100CF000883009F494C0FF91EF91BF91AF919F911B
:100D00008F917F916F915F914F913F912F910F90B4
:100D10000FBE0F901F901895883109F488C080325B
:100D200051F78093E80214C0803409F49DC040F468
:100D30008033B9F38833F9F68093E80285ECB0C0CC
:100D4000803509F485C0883509F496C0883499F651
:100D50000E947B05D0CF883909F48CC038F58837DC
:100D600029F050F4883611F0803729F683E080931B
:100D7000EA021092C30257C0883809F47BC0803958
:100D800019F0803809F0B7CF8091C302803208F0A3
:100D900071C0E091C30281E08E0F8093C302809105
:100DA000BB00F0E0ED55FD4F80833DC0803B39F046
:100DB000E0F4803A09F479C0883A09F09CCF84E0E5
:100DC0008093EA021092A2021092A102E09119030C
:100DD000F0911A0309958091A10281110FC081E061
:100DE0008093A1021092810209C0803C09F4A6CF31
:100DF000883C09F4A3CF883B09F07DCFE091A202A3
:100E000081E08E0F8093A202F0E0EF57FD4F8081CA
:100E10008093BB009091A2028091A10229C0809191
:100E2000C5028093BB0085EC8093BC0064CF909199
:100E3000E7028091E602981758F5E091E70281E019
:100E40008E0F8093E702F0E0EA53FD4F8081E9CFF7
:100E5000E091E70281E08E0F8093E7028091BB0072
:100E6000F0E0EA53FD4F80839091E7028091E60223
:100E70009817C8F285E8D8CFE091E70281E08E0F9D
:100E80008093E7028091BB00F0E0EA53FD4F80833E
:100E90008091E90281115CCF81E08093C40284EAF1
:100EA0008093BC001092EA0226CF85EC8093BC00B0
:100EB0001092EA028091C302803230F4E091C302C2
:100EC000F0E0ED55FD4F10826091C30270E0E091BB
:100ED0001703F091180383EA92E009951092C30278
:100EE0000ACF1092E80234CFE1E3F3E013821282DA
:100EF00088EE93E0A0E0B0E084839583A683B78377
:100F00002DE131E03183208325EC30E035872487E3
:100F100024EC30E03787268720EC30E0318B208BC3
:100F200021EC30E0338B228B22EC30E0358B248BAC
:100F300026EC30E0378B268B118E128E138E148E9A
:100F4000EEECF3E01382128284839583A683B78349
:100F50008FE291E091838083EAE3F4E013821282CE
:100F600081E491E09183808387E2848384E18187B7
:100F700084E08287138669E471E082E294E00E9453
:100F8000320562E571E088E294E00E94320561E694
:100F900071E08EE294E00E94320561E771E084E343
:100FA00094E00E9432056FE771E08AED93E00E94C1
:100FB00032056AE871E080EE93E00E94320565E94F
:100FC00071E086EE93E00E94320560EA71E08CEEFB
:100FD00093E00E94320567EA71E082EF93E00E949D
:100FE00032056AE172E088EF93E00E94320560EA20
:100FF00071E08EEF93E00E94320567EA71E084E0D1
:1010000094E00E9432056AE172E08AE094E00E9476
:1010100032056FEA71E080E194E00E9432056CEBEA
:1010200071E086E194E00E94320569EC71E08CE1A8
:1010300094E00C943205CF93DF93CDB7DEB7A19740
:101040000FB6F894DEBF0FBECDBF789484B5826032
:1010500084BD84B5816084BD85B5826085BD85B55C
:10106000816085BD80916E00816080936E001092DA
:101070008100809181008260809381008091810055
:1010800081608093810080918000816080938000E6
:101090008091B10084608093B1008091B000816044
:1010A0008093B00080917A00846080937A00809170
:1010B0007A00826080937A0080917A0081608093C8
:1010C0007A0080917A00806880937A001092C10043
:1010D000E0914103F091420382E08083E0913D037F
:1010E000F0913E031082E0913F03F09140038FECBA
:1010F000808310924903E0914503F091460386E016
:101100008083E0914303F091440380818061808378
:10111000E0914303F0914403808188608083E091F3
:101120004303F0914403808180688083E09143030E
:10113000F091440380818F7D808306E011E04BE0D5
:10114000E42E41E0F42E60E0F80181918F010E94CD
:101150004A02E016F106B9F710921E0310921D0321
:1011600010921C0310921B030E94FA028DE890E07B
:1011700090931A03809319038EE890E090931803DC
:101180008093170310923F0480914404823018F03A
:1011900098E090933F048093420462E370E080E023
:1011A00090E00E94A002609145048AE394E00E94CE
:1011B000BF0368EE73E080E090E00E94A00260E36D
:1011C0008AE394E00E94A9040BE416E4C8010197A5
:1011D000F1F760E38AE394E00E94A904C801019753
:1011E000F1F760E38AE394E00E94A90483E592E0CA
:1011F0000197F1F760E28AE394E00E94A90460910C
:101200003F04606240E08AE394E00E94C20484E00C
:101210008093400440E06CE08AE394E00E94C204C2
:101220000E940D0582E08093410440E066E08AE37D
:1012300094E00E94C20440E062E08AE394E00E94ED
:10124000C2048BE39FE10197F1F788E080934504A6
:1012500060E08AE394E00E94BF030E940D0560E015
:1012600080E00E94D90488ED91E00E942D0561E0A4
:1012700083E00E94D90488EE91E00E942D0568EE7B
:1012800073E080E090E00E94A0020E940D0560E003
:1012900080E00E94D90480EF91E00E942D0562E079
:1012A00080E00E94D90480E092E00E942D0563E076
:1012B00080E00E94D90484E192E00E942D052FB7BE
:1012C000F89480911F0390912003A0912103B09185
:1012D00022032FBF80932D0390932E03A0932F03FF
:1012E000B093300361E088E00E944A0261E089E047
:1012F0000E944A028AE0882E912CA12CB12C6624EF
:101300006394712C22E0E22EF12C33E0C32ED12C19
:101310002FB7F89480911F0390912003A09121038F
:10132000B09122032FBF40912D0350912E03609165
:101330002F0370913003841B950BA60BB70B8932DA
:101340009342A105B105D8F180912B0390912C0314
:10135000019690932C0380932B03019781F50E94B3
:101360000D0560E080E00E94D90480EF91E00E94CA
:101370002D058091290390912A0361E0892B09F0C2
:10138000E2C08AE00E94D9048EE192E00E942D051D
:10139000809127039091280362E0892B09F0D9C03E
:1013A0008AE00E94D90483E392E00E942D0563E065
:1013B00080E00E94D90488E492E00E942D050E94FA
:1013C000EE019093050180930401009102011091B8
:1013D00003018017910709F4A3C062E370E080E085
:1013E00090E00E94A0020E94EE019093050180937C
:1013F00004010817190709F493C02FB7F8948091D6
:101400001F0390912003A0912103B09122032FBFCD
:1014100080932D0390932E03A0932F03B09330035A
:1014200010922C0310922B030091040110910501DE
:10143000109303010093020117FD23C06091400443
:10144000862F816080934004696040E08AE394E0E5
:101450000E94C2040230110509F081C08091000190
:1014600090910101019690930101809300011092E7
:101470002603109225030497CCF0D0920101C0926C
:10148000000180910401909105018130910509F0DE
:10149000CBC080912503909126030196833091055E
:1014A0000CF4CCC010922603109225030E940D0567
:1014B000809100019091010126E0289FF001299F71
:1014C000F00D1124EE5DFB4F4481558160817181E7
:1014D0008AE394E00E948F0061E080E00E94D904DA
:1014E000809100019091010142E1489FF001499FE4
:1014F000F00D1124209125033091260346E0429FF0
:10150000C001439F900D1124E80FF91FE652FC4FD4
:1015100044815581608171818AE394E00E948F004B
:1015200062E370E080E090E00E94A00280E090E042
:10153000892B09F4EDCE0E94F900882309F4E8CE46
:101540000E940000E5CE8AE00E94D90489E292E080
:101550001DCF8AE00E94D9048EE392E026CF012BB2
:1015600009F08FCF8091000190910101019797FDC3
:1015700040C09093010180930001109226031092C5
:1015800025032090000130900101032C000C440839
:10159000550857FE33C06DE281E393E00E942F01AE
:1015A00022273327A901221933094409550919A211
:1015B0008E010F5D1F4FCA01B901A50194010E9460
:1015C000D70B605DF80162938F012115310541054C
:1015D000510589F70115110529F0B80181E393E060
:1015E0000E941E056CE572E081E393E00E941E05F7
:1015F00048CF1092010110920001BFCFA2019101CA
:1016000019A28E010F5D1F4FCA01B901A5019401F6
:101610000E94D70B605DF80162938F01211531059F
:101620004105510589F7D6CF8430910589F4809121
:10163000250390912603019797FD05C090932603FB
:101640008093250333CFF0922603E09225032ECF1B
:10165000039709F02BCF2091000130910101809177
:1016600023039091240301969093240380932303F2
:10167000019731F42F5F3F4F309301012093000118
:10168000009100011091010101301105D9F4809100
:10169000250390912603009749F461E088E00E94B9
:1016A0001C0210932A030093290300CF019709F02D
:1016B000FDCE60E088E00E941C0210922A03109286
:1016C0002903F4CE0230110509F0F0CE80912503F4
:1016D00090912603009749F461E089E00E941C0282
:1016E0007092280360922703E1CE019709F0DECEC5
:1016F00060E089E00E941C021092280310922703E8
:10170000D5CECF93DF93C2E2D4E02697888199812A
:10171000009711F00E949B0C83E0CA3DD807A9F7FF
:10172000CAE3D4E0269788819981009711F00E943E
:101730009B0C84E0C232D807A9F7DF91CF910895BE
:101740002F923F924F925F926F927F928F929F92D1
:10175000AF92BF92CF92DF92EF92FF920F931F93BF
:10176000CF93DF93CDB7DEB7CA1BDB0B0FB6F89470
:10177000DEBF0FBECDBF09942A88398848885F84B0
:101780006E847D848C849B84AA84B984C884DF8021
:10179000EE80FD800C811B81AA81B981CE0FD11D05
:1017A0000FB6F894DEBF0FBECDBFED010895A1E2E4
:1017B0001A2EAA1BBB1BFD010DC0AA1FBB1FEE1FCB
:1017C000FF1FA217B307E407F50720F0A21BB30B16
:1017D000E40BF50B661F771F881F991F1A9469F792
:1017E00060957095809590959B01AC01BD01CF01EE
:1017F0000895EE0FFF1F0590F491E02D09940F93CB
:101800001F93CF93DF938230910510F482E090E034
:10181000E0914804F091490430E020E0B0E0A0E01D
:10182000309799F42115310509F44AC0281B390B6A
:1018300024303105D8F58A819B816115710589F1C4
:10184000FB0193838283FE0111C04081518102819B
:10185000138148175907E0F04817590799F4109772
:1018600061F012960C93129713961C933296CF0147
:10187000DF91CF911F910F91089500934804109329
:101880004904F4CF2115310551F04217530738F0C0
:10189000A901DB019A01BD01DF01F801C1CFEF0110
:1018A000F9CF9093490480934804CDCFFE01E20F15
:1018B000F31F819391932250310939832883D7CF25
:1018C0002091460430914704232B41F420910D01CF
:1018D00030910E01309347042093460420910B0170
:1018E00030910C012115310541F42DB73EB74091DF
:1018F0000F0150911001241B350BE0914604F0912B
:101900004704E217F307A0F42E1B3F0B28173907F3
:1019100078F0AC014E5F5F4F2417350748F04E0F4B
:101920005F1F5093470440934604819391939FCF48
:10193000F0E0E0E09CCFCF93DF930097E9F0FC016B
:10194000329713821282A0914804B0914904ED01AC
:1019500030E020E01097A1F420813181820F931FA5
:1019600020914604309147042817390709F061C0D7
:10197000F0934704E0934604DF91CF910895EA0184
:10198000CE17DF07E8F54A815B819E0141155105BD
:10199000B1F7E901FB83EA8349915991C40FD51F3F
:1019A000EC17FD0761F4808191810296840F951FE9
:1019B000E90199838883828193819B838A83F0E004
:1019C000E0E012968D919C9113970097B9F52D91B7
:1019D0003C911197CD010296820F931F20914604EE
:1019E000309147042817390739F6309751F510928E
:1019F000490410924804B0934704A0934604BCCF16
:101A0000D383C28340815181840F951FC817D907A2
:101A100061F44E5F5F4F88819981480F591F518350
:101A200040838A819B81938382832115310509F04C
:101A3000B0CFF0934904E09348049ECFFD01DC0150
:101A4000C0CF13821282D7CFB0E0A0E0EAE2FDE07F
:101A50000C94A20B8C01009751F4CB010E94FF0B58
:101A60008C01C801CDB7DEB7E0E10C94BE0BFC01E0
:101A7000E60FF71F9C0122503109E217F30708F423
:101A80009DC0D901CD91DC911197C617D70798F069
:101A9000C530D10530F3CE0104978617970708F3B8
:101AA000C61BD70B2297C193D1936D937C93CF0123
:101AB0000E949B0CD6CF5B01AC1ABD0A4C018C0E68
:101AC0009D1EA0914804B0914904512C412CF12C49
:101AD000E12C109731F580914604909147048815C8
:101AE000990509F05CC04616570608F058C0809169
:101AF0000B0190910C01009741F48DB79EB7409176
:101B00000F0150911001841B950BE817F90708F09D
:101B100055C0F0934704E0934604F9017183608354
:101B2000A0CF8D919C91119712966C90129713965D
:101B30007C901397A815B90559F56C0142E0C40EC5
:101B4000D11CCA14DB0420F1AC014A195B09DA018B
:101B50001296159780F06282738251834083D90177
:101B60006D937C93E114F10471F0D7011396FC930B
:101B7000EE93129776CF22968C0F9D1FF9019183D9
:101B80008083F301EFCFF0934904E093480469CFD9
:101B90004816590608F42C017D01D3019ACFCB01D8
:101BA0000E94FF0B7C01009749F0AE01B8010E9432
:101BB000E10DC8010E949B0C870153CF10E000E0AB
:101BC00050CFFB01DC0102C001900D92415050400A
:101BD000D8F70895FB01DC0101900D920020E1F798
:101BE000089510E0C2E6D0E004C0FE010E94F90BA7
:0C1BF0002196C336D107C9F7F894FFCF47
:101BFC00FFFFFFFFFFFF020304050600004A0480FD
:101C0C00000000400014005400000000002F018F61
:101C1C0000BC007C01ED00CB00DF00000000009058
:101C2C00036303A60439035C0349033A0300000071
:101C3C000018058F00A604D2022A494E4943494F89
:101C4C002A002A454E43454E444552204C45442AD1
:101C5C00002A454E43454E444552204C4544322AB9
:101C6C00002A494E54454752414E5445532A00537D
:101C7C007562206974656D2031005375622069743A
:101C8C00656D203200537562206974656D203300D8
:101C9C004C4544204F4E004C4544204F4646005383
:101CAC00657267696F204461766964004A756C6976
:101CBC006F2052616E67656C004A657375732045C1
:101CCC006D696C69616E6F002A4D656E75204C43B1
:101CDC004420323078342A0041726475696E6F008A
:101CEC00204D454E55205052494E434950414C00D1
:101CFC002050726573696F6E65206375616C7175C8
:101D0C0069657200207465636C612E2E2E004C4543
:101D1C004431203D204F4646004C454431203D2067
:101D2C004F4E004C454432203D204F4646004C451A
:101D3C004432203D204F4E002050726573696F6E07
:101D4C006520756E61207465636C61000D0A00007E
:00000001FF
