:100000000C942F010C940F040C94E4030C94B9038A
:100010000C948E030C9463030C9438030C940D031E
:100020000C94E2020C9450010C9450010C94500179
:100030000C9450010C9450010C9450010C945001FC
:100040000C9450010C9450010C9450010C945001EC
:100050000C9450010C9450010C9450010C94980293
:100060000C9450010C9450010C9450010C945001CC
:100070000C9450010C9450010C9450010C945001BC
:100080000C9450010C9450010C9450010C945001AC
:100090000C9450010C9450010C9450010C9450019C
:1000A0000C9450010C9450010C9450010C9450018C
:1000B0000C9450010C9450010C9450010C9450017C
:1000C0000C9450010C9450010C9450010C9450016C
:1000D0000C9450010C9450010C9450010C9450015C
:1000E0000C9450010C9475010C9460020C940F0256
:1000F0000C9448020C9456020C94BC010C949D0183
:100100000C9485010C947D010C946D010C943002CB
:100110000C94CB010C9440020C94AD010C9444025D
:100120000C9495010C945C020C9497020C9425029B
:100130000C944E020C948D010C9452020C94A50167
:100140000C9429020C9436020C940A020C9421029D
:100150000C943A020C942D02000021002400270088
:100160002A002D00300033000101000004010701C6
:100170000A0100002200250028002B002E0031007B
:10018000340002010000050108010B010505050509
:10019000070508080808020202020A0A08080404FF
:1001A000040401010101010101010303030303032D
:1001B0000303040707070C0C0C0C0C0C0C0C0202BC
:1001C000020206060606060606060B0B0B0B0B0BB9
:1001D0000B0B010210202008081020401020408046
:1001E00002010201080402010102040810204080FB
:1001F0008040201008040201800402018040201089
:1002000008040201080402010102040810204080D1
:10021000010204081020408000000A0B02090C0DA6
:100220000E080703040100000000000000000000A9
:1002300000000000000000000000000000000000BE
:10024000000000001211100000000000000000007B
:100250000000000000000000000000000000112469
:100260001FBECFEFD1E2DEBFCDBF00E00CBF12E07A
:10027000A0E0B2E0E8E1FAE000E00BBF02C00790C6
:100280000D92A631B107D9F722E0A6E1B2E001C094
:100290001D92AF31B207E1F70E943A040C940A05AF
:1002A0000C940000E82FF0E0DF01AA0FBB1FAA5F4B
:1002B000BD4F11967C936E93883008F04DC088270F
:1002C000EB59FE4F8F4F0C9402058D0195016D0186
:1002D00075017D0185019D01A501809169008C7FDB
:1002E000826080936900E89A089580916900837F15
:1002F000886080936900E99A0895809169008F7CF5
:10030000806280936900EA9A0895809169008F73F2
:10031000806880936900EB9A089580916A008C7FD1
:10032000826080936A00EC9A089580916A00837FCE
:10033000886080936A00ED9A089580916A008F7CAE
:10034000806280936A00EE9A089580916A008F73AC
:10035000806880936A00EF9A08952091040230919A
:10036000050281E090E0232B11F090E080E0909373
:100370000502809304020895209102023091030245
:1003800081E090E0232B11F090E080E09093030255
:10039000809302020895209100023091010281E0D1
:1003A00090E0232B11F090E080E090930102809385
:1003B00000020895282F30E0F901E85EFD4F949186
:1003C000F901EE52FE4F449124573E4FF90124911A
:1003D000222309F435C0992311F191509231F8F498
:1003E000E92FF0E08827E850FE4F8F4F0C9402056C
:1003F00029022D020A02210225020F0230023602D2
:100400003A024002440248024E0252020F025602D1
:100410005C026002809180008F7780938000E22FE1
:10042000F0E0EE0FFF1FEE58FE4FA591B4918FB78D
:10043000F894EC91611148C040954E234C938FBFC6
:100440000895809180008F7DE8CF80918000877F24
:10045000E4CF84B58F7784BDE2CF84B58F7DFBCFA9
:100460008091B0008F778093B000D9CF8091B00099
:100470008F7DF9CF809190008F7780939000CFCFC0
:10048000809190008F7DF9CF80919000877FF5CF8C
:100490008091A0008F778093A000C1CF8091A000B1
:1004A0008F7DF9CF8091A000877FF5CF80912001CB
:1004B0008F7780932001B3CF809120018F7DF9CF7A
:1004C00080912001877FF5CF4E2BB8CFCF93DF935C
:1004D00090E0FC01EE52FE4F249184579E4FFC01A8
:1004E00084918823D1F090E0880F991FFC01E85A8D
:1004F000FE4FA591B491FC01EE58FE4FC591D491E9
:1005000061110EC09FB7F8948C91E22FE0958E2375
:100510008C932881E223E8839FBFDF91CF910895D8
:100520008FB7F894EC91E22BEC938FBFF6CF089540
:100530001F920F920FB60F9211242F933F938F9318
:100540009F93AF93BF9380911B0290911C02A09147
:100550001D02B0911E0230911A0223E0230F2D37A5
:1005600058F50196A11DB11D20931A0280931B021C
:1005700090931C02A0931D02B0931E02809116025C
:1005800090911702A0911802B09119020196A11D35
:10059000B11D8093160290931702A0931802B09396
:1005A0001902BF91AF919F918F913F912F910F9021
:1005B0000FBE0F901F90189526E8230F0296A11DDD
:1005C000B11DD2CF1F920F920FB60F9211240BB60E
:1005D0000F922F933F934F935F936F937F938F93DC
:1005E0009F93AF93BF93EF93FF93E0911402F09129
:1005F00015021995FF91EF91BF91AF919F918F9146
:100600007F916F915F914F913F912F910F900BBE12
:100610000F900FBE0F901F9018951F920F920FB65C
:100620000F9211240BB60F922F933F934F935F932A
:100630006F937F938F939F93AF93BF93EF93FF93AA
:10064000E0911202F09113021995FF91EF91BF9181
:10065000AF919F918F917F916F915F914F913F915A
:100660002F910F900BBE0F900FBE0F901F901895FB
:100670001F920F920FB60F9211240BB60F922F9369
:100680003F934F935F936F937F938F939F93AF931A
:10069000BF93EF93FF93E0910802F091090219953F
:1006A000FF91EF91BF91AF919F918F917F916F914A
:1006B0005F914F913F912F910F900BBE0F900FBE06
:1006C0000F901F9018951F920F920FB60F92112442
:1006D0000BB60F922F933F934F935F936F937F933C
:1006E0008F939F93AF93BF93EF93FF93E091060295
:1006F000F09107021995FF91EF91BF91AF919F91F2
:100700008F917F916F915F914F913F912F910F90BA
:100710000BBE0F900FBE0F901F9018951F920F9257
:100720000FB60F9211240BB60F922F933F934F9356
:100730005F936F937F938F939F93AF93BF93EF9349
:10074000FF93E0911002F09111021995FF91EF9142
:10075000BF91AF919F918F917F916F915F914F91D9
:100760003F912F910F900BBE0F900FBE0F901F90D7
:1007700018951F920F920FB60F9211240BB60F927D
:100780002F933F934F935F936F937F938F939F9399
:10079000AF93BF93EF93FF93E0910E02F0910F029E
:1007A0001995FF91EF91BF91AF919F918F917F919B
:1007B0006F915F914F913F912F910F900BBE0F90D2
:1007C0000FBE0F901F9018951F920F920FB60F92A9
:1007D00011240BB60F922F933F934F935F936F9318
:1007E0007F938F939F93AF93BF93EF93FF93E0918A
:1007F0000C02F0910D021995FF91EF91BF91AF910D
:100800009F918F917F916F915F914F913F912F9128
:100810000F900BBE0F900FBE0F901F9018951F9258
:100820000F920FB60F9211240BB60F922F933F9396
:100830004F935F936F937F938F939F93AF93BF93E8
:10084000EF93FF93E0910A02F0910B021995FF914B
:10085000EF91BF91AF919F918F917F916F915F9138
:100860004F913F912F910F900BBE0F900FBE0F90A5
:100870001F901895789484B5826084BD84B581609A
:1008800084BD85B5826085BD85B5816085BD80915B
:100890006E00816080936E001092810080918100D3
:1008A00082608093810080918100816080938100CB
:1008B000809180008160809380008091B10084608D
:1008C0008093B1008091B00081608093B0008091EE
:1008D000910082608093910080919100816080936B
:1008E0009100809190008160809390008091A100A0
:1008F00082608093A1008091A10081608093A1001B
:100900008091A00081608093A0008091210182608D
:100910008093210180912101816080932101809148
:10092000200181608093200180917A00846080930F
:100930007A0080917A00826080937A0080917A00B8
:10094000816080937A0080917A00806880937A0039
:100950001092C10061E086E10E94660261E087E1D9
:100960000E94660261E088E10E94660260E082E126
:100970000E94660260E082E10E94660260E082E11D
:100980000E946602609104027091050286E10E9455
:10099000DA01609102027091030287E10E94DA019C
:1009A000609100027091010288E10E94DA016DEA13
:1009B00071E085E00E9452016CEB71E084E00E94DE
:1009C00052016BEC71E083E00E945201C0E0D0E084
:1009D000609104027091050286E10E94DA01609143
:1009E00002027091030287E10E94DA016091000225
:1009F0007091010288E10E94DA01209749F30E9478
:100A00000000E6CFEE0FFF1F881F8BBF0790F69107
:080A1000E02D1994F894FFCFCA
:100A180001000100010097029702970297029702CE
:060A2800970297029702FD
:00000001FF
