:100000000C945D000C9485000C9485000C94850084
:100010000C9485000C9485000C9485000C9485004C
:100020000C9485000C9485000C9485000C9485003C
:100030000C9485000C943C040C9485000C94850071
:100040000C94F2030C9485000C9485000C948500AC
:100050000C9485000C9485000C9485000C9485000C
:100060000C9485000C94850000000008000201003B
:100070000003040700000000000000000000000072
:10008000250028002B0000000000240027002A0083
:10009000040404040404040402020202020203032E
:1000A0000303030301020408102040800102040836
:1000B0001020010204081020E10411241FBECFEF1C
:1000C000D8E0DEBFCDBF11E0A0E0B1E0E2E5FAE0AC
:1000D00002C005900D92A232B107D9F721E0A2E249
:1000E000B1E001C01D92AD34B207E1F710E0CDE5FB
:1000F000D0E004C02197FE010E942105CC35D10734
:10010000C9F70E9463040C9427050C94000090E04A
:10011000FC01EC55FF4F249180579F4FFC018491C7
:10012000882399F090E0880F991FFC01EA57FF4F50
:10013000A591B491FC01E458FF4F859194918FB73C
:10014000F894EC91E22BEC938FBF0895AF92BF929D
:10015000CF92DF92EF92FF920F931F93CF93DF9393
:100160006C017B018B01040F151FEB015E01AE18C2
:10017000BF08C017D10759F06991D601ED91FC91E4
:100180000190F081E02DC6010995892B79F7C50111
:10019000DF91CF911F910F91FF90EF90DF90CF9063
:1001A000BF90AF90089590E0FC01E859FF4F249173
:1001B000FC01EC55FF4F3491FC01E057FF4FE491F7
:1001C000EE23C9F0222339F0233001F1A8F42130C5
:1001D00019F1223029F1F0E0EE0FFF1FE458FF4F34
:1001E000A591B4918FB7F894EC91611126C0309528
:1001F0003E233C938FBF08952730A9F02830C9F0E3
:10020000243049F7809180008F7D03C08091800069
:100210008F7780938000DFCF84B58F7784BDDBCF6D
:1002200084B58F7DFBCF8091B0008F778093B00035
:10023000D2CF8091B0008F7DF9CF3E2BDACF3FB780
:10024000F89480912F0190913001A0913101B091EB
:10025000320126B5A89B05C02F3F19F00196A11DBC
:10026000B11D3FBFBA2FA92F982F8827BC01CD0100
:10027000620F711D811D911D42E0660F771F881F5F
:10028000991F4A95D1F708958F929F92AF92BF928E
:10029000CF92DF92EF92FF920E941F014B015C010F
:1002A00080EDC82E87E0D82EE12CF12C0E941F0192
:1002B000681979098A099B09683E7340810591058F
:1002C000A8F321E0C21AD108E108F10888EE880EEF
:1002D00083E0981EA11CB11CC114D104E104F104F7
:1002E00029F7FF90EF90DF90CF90BF90AF909F9055
:1002F0008F900895089590E080E008958F929F92E6
:10030000AF92BF920F931F93CF93DF93CDB7DEB71A
:10031000A1970FB6F894DEBF0FBECDBF19A2423031
:1003200008F44AE08E010F5D1F4F842E912CB12CF2
:10033000A12CA50194010E94FF04E62FB901CA0176
:10034000EA3044F5E05DD801EE938D01232B242B98
:10035000252B79F790E080E0109769F0FD0101907E
:100360000020E9F73197AF014A1B5B0BBD0185E324
:1003700091E00E94A600A1960FB6F894DEBF0FBED2
:10038000CDBFDF91CF911F910F91BF90AF909F9004
:100390008F900895E95CD7CFFC0101900020E9F728
:1003A0003197AF01481B590BBC0185E391E00C94D8
:1003B000A600CF93DF93EC0160E08E810E94D30012
:1003C00061E08E810E94D30060E08E810E94D300A4
:1003D0008BE891E00197F1F7DF91CF910895CF92EB
:1003E000DF92EF92FF920F931F93CF93DF936C01F5
:1003F0007C0187E0E80EF11CD0E0C0E0062F10E0A1
:10040000B8010C2E02C0759567950A94E2F76170E9
:10041000F70181917F010E94D3002196C430D1055C
:1004200079F7C601DF91CF911F910F91FF90EF9067
:10043000DF90CF900C94D901CF92DF92EF92FF9290
:100440000F931F93CF93DF93EC01F62E642F8C81D3
:100450000E94D3008D818F3F19F060E00E94D3008D
:100460000F2D10E08F8584FF25C06E0187E0C80E38
:10047000D11CF12CE12CB8010E2C02C075956795AA
:100480000A94E2F76170F60181916F010E94D30036
:10049000FFEFEF1AFF0A88E0E816F10461F7CE01DA
:1004A000DF91CF911F910F91FF90EF90DF90CF9050
:1004B0000C94D901B80184E0759567958A95E1F7A8
:1004C000CE010E94EF016F2DCE01DF91CF911F91E0
:1004D0000F91FF90EF90DF90CF900C94EF0141E0EF
:1004E0000E941C0281E090E00895CF92DF92EF928B
:1004F000FF926B017C0141E06DE285E391E00E9497
:100500001C0266277727CB016C197D098E099F098C
:100510004AE00E947E010196FF90EF90DF90CF901D
:10052000089540E0682F85E391E00C941C029091BF
:100530004801691710F06FEF690FE62FF0E0EB5CF0
:10054000FE4F9489890F80680C949102CF93DF93BA
:10055000823029F4909144019860909344018093F3
:1005600048011092490180E480934A0180E1809320
:100570004B0180E580934C01809139010E948700F6
:1005800080913A018F3F11F00E94870080913B01DA
:100590000E948700C5E3D1E09E0125533140809140
:1005A000440184FD0AC084E090E0219628173907B1
:1005B0003CF48E810E948700EFCF88E090E0F5CF79
:1005C0008BE39DE00197F1F760E0809139010E9493
:1005D000D30060E080913B010E94D30080913A01FA
:1005E0008F3F19F060E00E94D3008091440184FDA8
:1005F00039C063E085E391E00E94EF01CBE4D6E4EB
:10060000CE010197F1F763E085E391E00E94EF01ED
:100610002197F1F763E085E391E00E94EF0183E524
:1006200092E00197F1F762E085E391E00E94EF012B
:100630008091440180620E94910284E08093450190
:100640008CE00E94910281E00E9491028BE39FE185
:100650000197F1F782E08093460186E0DF91CF9128
:100660000C94910280620E9491028BE496E40197BF
:10067000F1F78091440180620E94910283E592E04B
:100680000197F1F78091440180620E949102D0CFDE
:100690008091260190912701A0912801B091290114
:1006A0000196A11DB11D8093260190932701A0936F
:1006B0002801B093290160E08CE00E94D300809172
:1006C000260190912701A0912801B0912901CC9792
:1006D000A105B105DCF010922601109227011092BD
:1006E0002801109229018091220190912301A0916B
:1006F0002401B09125010196A11DB11D8093220115
:1007000090932301A0932401B093250180912201AD
:1007100090912301A0912401B0912501181619068A
:100720001A061B0604F58091260190912701A091DD
:100730002801B09129014E97A105B105A4F061E00F
:100740008CE00E94D3001092260110922701109293
:100750002801109229011092220110922301109277
:1007600024011092250161E085E00E9497028CE04F
:1007700091E00E94CC0161E085E00E9497026091C7
:10078000220170912301809124019091250197FF0E
:1007900022C00E94750261E088E00E94970281E118
:1007A00091E00E94CC0161E08AE00E9497028CE017
:1007B00091E00E94CC0161E08AE00E949702609182
:1007C000260170912701809128019091290197FFBE
:1007D00006C00C9475024AE00E947E01DCCF4AE01C
:1007E0000C947E011F920F920FB60F9211242F933B
:1007F0003F938F939F93AF93BF9380912B019091E1
:100800002C01A0912D01B0912E0130912A0123E0FD
:10081000230F2D3758F50196A11DB11D20932A01F4
:1008200080932B0190932C01A0932D01B0932E0166
:1008300080912F0190913001A0913101B09132014E
:100840000196A11DB11D80932F0190933001A093BB
:100850003101B0933201BF91AF919F918F913F9140
:100860002F910F900FBE0F901F90189526E8230F21
:100870000296A11DB11DD2CF1F920F920FB60F92FB
:1008800011242F933F934F935F936F937F938F9395
:100890009F93AF93BF93EF93FF93E0913301F09158
:1008A00034010995FF91EF91BF91AF919F918F9185
:1008B0007F916F915F914F913F912F910F900FBE5C
:1008C0000F901F901895789484B5826084BD84B58C
:1008D000816084BD85B5826085BD85B5816085BD3B
:1008E00080916E00816080936E00109281008091F3
:1008F000810082608093810080918100816080937B
:100900008100809180008160809380008091B1009F
:1009100084608093B1008091B00081608093B000CA
:1009200080917A00846080937A0080917A0082605E
:1009300080937A0080917A00816080937A00809120
:100940007A00806880937A001092C1008CE00E9447
:1009500087008DE00E94870082E00E94A60260E08E
:1009600082E00E94970283E191E00E94CC0180E145
:10097000809381001092800082E19AE79093870033
:100980008093860084E18093810088E493E09093D3
:1009900034018093330181E080936F00C0E0D0E0A8
:1009A00061E08DE00E94D3000E94440160E08DE090
:1009B0000E94D3000E944401209791F30E940000FE
:1009C000EFCFE5E3F1E01382128284E091E09183BE
:1009D00080838AE0848389E0858388E0868385E05C
:1009E000878384E0808783E0818782E08287138623
:1009F000148615861686178681E00C94A602A1E25D
:100A00001A2EAA1BBB1BFD010DC0AA1FBB1FEE1F88
:100A1000FF1FA217B307E407F50720F0A21BB30BD3
:100A2000E40BF50B661F771F881F991F1A9469F74F
:100A300060957095809590959B01AC01BD01CF01AB
:100A40000895EE0FFF1F0590F491E02D0994F8949E
:020A5000FFCFD6
:100A5200000000006F02A6007B017A012020202006
:100A6200003B0054494D45522041524455494E4F96
:020A7200000082
:00000001FF
