:100000000C9438010C9412070C94E7060C94BC066F
:100010000C9491060C9466060C943B060C94100606
:100020000C94E5050C9469010C9469010C94690128
:100030000C9469010C9469010C9469010C94690198
:100040000C9469010C9469010C9469010C94690188
:100050000C9469010C9469010C9469010C949B0542
:100060000C9469010C9469010C9469010C94690168
:100070000C9469010C9469010C9469010C94690158
:100080000C9469010C9469010C9469010C94690148
:100090000C9469010C9469010C9469010C943D075E
:1000A0000C9469010C9469010C9469010C94690128
:1000B0000C9469010C9469010C9469010C94690118
:1000C0000C9469010C9469010C9469010C94690108
:1000D0000C9469010C9469010C9469010C946901F8
:1000E0000C9469010C9454030C9403020C94E501E4
:1000F0000C941D030C9436020C9432020C941903D8
:100100000C94A2020C941E020C941A030C94FF018E
:100110000C9434050C9427030C946B010C94060288
:100120000C94B2020C9428020C941A020C9424022F
:100130000C94E0010C9493020C9420030C94100294
:100140000C946A040C94F7010C940C020C94750145
:100150000C9416020C94FB010C945D080C94B102F3
:100160000C942C020C94830100000A0B02090C0D64
:100170000E0807030401000000000000000000005A
:10018000000000000000000000000000000000006F
:10019000000000001211100000000000000000002C
:1001A000000000000000000000000000000000004F
:1001B0002200250028002B002E003100340002010F
:1001C0000000050108010B010000210024002700A8
:1001D0002A002D0030003300010100000401070156
:1001E0000A010505050507050808080802020202BC
:1001F0000A0A0808040404040101010101010101C3
:100200000303030303030303040707070C0C0C0C8D
:100210000C0C0C0C02020202060606060606060676
:100220000B0B0B0B0B0B0B0B010210202008081003
:100230002040102040800201020108040201010256
:10024000040810204080804020100804020180042F
:10025000020180402010080402010804020101028A
:1002600004081020408001020408102040805D082E
:1002700011241FBECFEFD1E2DEBFCDBF00E00CBF27
:1002800012E0A0E0B2E0E8E4F6E100E00BBF02C05B
:1002900007900D92A839B107D9F723E0A8E9B2E099
:1002A00001C01D92A835B207E1F711E0C8E3D1E023
:1002B00000E006C021970109802FFE010E94060B75
:1002C000C733D10780E00807A9F70E947D080C9486
:1002D000220B0C94000080913E0390913F03019605
:1002E00090933F0380933E0308958091360390914D
:1002F00037030196909337038093360310923F03A0
:1003000010923E030895AF92BF92CF92DF92EF9288
:10031000FF920F931F93CF93DF936C017B018B01AF
:10032000040F151FEB015E01AE18BF08C017D107FF
:1003300059F06991D601ED91FC910190F081E02D89
:10034000C6011995892B79F7C501DF91CF911F91CE
:100350000F91FF90EF90DF90CF90BF90AF900895F6
:10036000282F30E0F901E859FE4F9491F901E85D3A
:10037000FD4F44912E513E4FF9012491222309F45F
:1003800035C0992311F191509231F8F4E92FF0E042
:100390008827E253FE4F8F4F0C94060BFF01030298
:1003A000E001F701FB01E50106020C021002160252
:1003B0001A021E0224022802E5012C023202360231
:1003C000809180008F7780938000E22FF0E0EE0F25
:1003D000FF1FE255FE4FA591B4918FB7F894EC91B1
:1003E000611148C040954E234C938FBF0895809172
:1003F00080008F7DE8CF80918000877FE4CF84B537
:100400008F7784BDE2CF84B58F7DFBCF8091B00024
:100410008F778093B000D9CF8091B0008F7DF9CFD6
:10042000809190008F7780939000CFCF8091900043
:100430008F7DF9CF80919000877FF5CF8091A000CC
:100440008F778093A000C1CF8091A0008F7DF9CFDE
:100450008091A000877FF5CF809120018F778093D6
:100460002001B3CF809120018F7DF9CF80912001B1
:10047000877FF5CF4E2BB8CF3FB7F89480913203EA
:1004800090913303A0913403B091350326B5A89B16
:1004900005C02F3F19F00196A11DB11D3FBFBA2F16
:1004A000A92F982F8827BC01CD01620F711D811DD6
:1004B000911D42E0660F771F881F991F4A95D1F75B
:1004C00008958F929F92AF92BF92CF92DF92EF9258
:1004D000FF924B015C010E943C026B017C010E9477
:1004E0003C026C197D098E099F09683E73408105A5
:1004F0009105A8F321E0821A9108A108B10888EEBD
:10050000C80E83E0D81EE11CF11C81149104A104E3
:10051000B10429F7FF90EF90DF90CF90BF90AF909C
:100520009F908F90089580913C0390913D03CC96CD
:1005300090933D0380933C0368EC70E080E090E092
:100540000C94610280913C0390913D03019690933D
:100550003D0380933C0368EC70E080E090E00C94F5
:100560006102089508951F93CF93DF93C1E0C09374
:100570009902882399F1D091B8001091BA00809126
:10058000BC008A7B8093BC0060E084E10E94B001E3
:1005900060E085E10E94B00110920303C093020362
:1005A0001092DD0261E084E10E94B00161E085E12A
:1005B0000E94B0018091B9008E7F8093B900809134
:1005C000B9008D7F8093B90088E48093B80085E4FA
:1005D0008093BC001093BA00D093B800DF91CF9104
:1005E0001F9108952091BA02260F3327331F21321D
:1005F0003105ECF420910303FC0190E080E024300D
:1006000069F082E00895A091BA022191AC014656AA
:100610005D4FA40FB52FB11D2C930196861798F34B
:100620008091BA02680F6093BA0280E0089581E079
:10063000089508958FEF9FEF08958FEF9FEF08952E
:100640008091980290E09195819591090895CF92BB
:10065000DF92EF92FF920F931F93CF93DF937C0172
:10066000CB018A0120910903222389F0EB016B0160
:10067000C40ED51ECC15DD0569F06991D701ED9149
:10068000FC910190F081E02DC7011995F3CF642F03
:100690000E94F202C801DF91CF911F910F91FF904C
:1006A000EF90DF90CF900895CF93DF931F92CDB757
:1006B000DEB76983209109032223F9F020912C03EE
:1006C000203258F021E030E0FC013383228390E0B7
:1006D00080E00F90DF91CF91089580910A03E82F79
:1006E000F0E0E55FFC4F998190838F5F80930A0370
:1006F00080932C0381E090E0ECCF61E0CE01019685
:100700000E94F202F7CFCF92DF92EF92FF920F9307
:100710001F93CF93DF93FC01C48121E02093090351
:10072000C0932B0310920A0310922C038385682B2D
:1007300080E493E00E945403D0912C03D13208F05E
:1007400092C00E943C026B017C01809103038111E5
:1007500065C082E08093030381E0809302038FEF02
:100760008093010310920003D093FF02ABE0B3E04B
:10077000EFEDF2E080E0D81385C01092DE028091A8
:10078000DE02CC0FC82BC093DE028091DD028130E7
:1007900009F07CC01092DD020E943C026B017C01DA
:1007A0008091DE028093BB00809105039091060347
:1007B000A0910703B0910803892B8A2B8B2B99F00A
:1007C0000E943C020091050310910603209107034B
:1007D000309108036C197D098E099F0906171707C8
:1007E00028073907E0F18091BC0083FDD9CF85EC63
:1007F0008093BC000E943C026B017C01809103034A
:10080000823009F445C0809101038F3F61F18091EE
:100810000103803241F18091010325C080910503DD
:1008200090910603A0910703B0910803892B8A2BAE
:100830008B2B09F48ACF0E943C0200910503109192
:10084000060320910703309108036C197D098E0976
:100850009F09061717072807390708F076CF8091F8
:1008600004030E94B30210920A0310922C03109208
:100870000903DF91CF911F910F91FF90EF90DF90CF
:10088000CF9008959D9191938F5F75CF85EEB0CFF6
:100890008091050390910603A0910703B09108038E
:1008A000892B8A2B8B2B09F4A9CF0E943C02009143
:1008B00005031091060320910703309108036C197A
:1008C0007D098E099F09061717072807390708F0C1
:1008D00095CFC5CF90E080E008958F929F92AF9220
:1008E000BF920F931F93CF93DF93CDB7DEB7A1973E
:1008F0000FB6F894DEBF0FBECDBF19A2423008F488
:100900004AE08E010F5D1F4F842E912CB12CA12C3B
:10091000A50194010E94E40AE62FB901CA01EA3058
:1009200044F5E05DD801EE938D01232B242B252B7C
:1009300079F790E080E0109769F0FD0101900020C8
:10094000E9F73197AF014A1B5B0BBD018CE493E0E3
:100950000E948301A1960FB6F894DEBF0FBECDBFF3
:10096000DF91CF911F910F91BF90AF909F908F908B
:100970000895E95CD7CFFC0101900020E9F7319799
:10098000AF01481B590BBC018CE493E00C9483012C
:100990000F931F93CF938C01C62F0E9483036C2F5C
:1009A0006460C8010E9483036C2F6B7FC8010E94A2
:1009B000830383EC90E00197F1F7CF911F910F91A2
:1009C00008950F931F93CF93DF938C01D62FC42FDD
:1009D000607F642B0E94C80480E1D89FB00111247D
:1009E0006C2BC801DF91CF911F910F910C94C8041B
:1009F000CF93DF9300D000D01F921F92CDB7DEB708
:100A000098E0E0E1F2E0DE01119601900D929A95F6
:100A1000E1F790915403961708F46FEF262F30E01A
:100A2000220F331F41E050E04C0F5D1F240F351F94
:100A3000F9016081680F606840E08CE493E02896DB
:100A40000FB6F894DEBF0FBECDBFDF91CF910C94EF
:100A5000E10440E061E08CE493E00E94E1048BE378
:100A60009FE10197F1F7089541E00E94E10481E0E0
:100A700090E00895CF92DF92EF92FF926C01990F70
:100A8000EE08FF08F7FE16C041E06DE28CE493E04B
:100A90000E94E10466277727CB016C197D098E0936
:100AA0009F094AE00E946D040196FF90EF90DF904D
:100AB000CF9008954AE0C701B601FF90EF90DF9014
:100AC000CF900C946D0485ED8093BC00809105035C
:100AD00090910603A0910703B09108030796A11D0A
:100AE000B11D23E0B695A795979587952A95D1F7DF
:100AF0002091BC0024FD03C010920303089540918F
:100B00000503509106036091070370910803452B7C
:100B1000462B472B69F30097A105B10541F025E36A
:100B20002A95F1F700000197A109B109E1CF809161
:100B300004030C94B3021F920F920FB60F9211246C
:100B40002F933F938F939F93AF93BF9380912E03E7
:100B500090912F03A0913003B091310330912D0378
:100B600023E0230F2D3758F50196A11DB11D2093C9
:100B70002D0380932E0390932F03A0933003B09303
:100B800031038091320390913303A0913403B091EB
:100B900035030196A11DB11D809332039093330359
:100BA000A0933403B0933503BF91AF919F918F9180
:100BB0003F912F910F900FBE0F901F90189526E830
:100BC000230F0296A11DB11DD2CF1F920F920FB617
:100BD0000F9211240BB60F922F933F934F935F9375
:100BE0006F937F938F939F93AF93BF93EF93FF93F5
:100BF000E0910E02F0910F021995FF91EF91BF91D4
:100C0000AF919F918F917F916F915F914F913F91A4
:100C10002F910F900BBE0F900FBE0F901F90189545
:100C20001F920F920FB60F9211240BB60F922F93B3
:100C30003F934F935F936F937F938F939F93AF9364
:100C4000BF93EF93FF93E0910C02F0910D02199581
:100C5000FF91EF91BF91AF919F918F917F916F9194
:100C60005F914F913F912F910F900BBE0F900FBE50
:100C70000F901F9018951F920F920FB60F9211248C
:100C80000BB60F922F933F934F935F936F937F9386
:100C90008F939F93AF93BF93EF93FF93E0910202E3
:100CA000F09103021995FF91EF91BF91AF919F9140
:100CB0008F917F916F915F914F913F912F910F9005
:100CC0000BBE0F900FBE0F901F9018951F920F92A2
:100CD0000FB60F9211240BB60F922F933F934F93A1
:100CE0005F936F937F938F939F93AF93BF93EF9394
:100CF000FF93E0910002F09101021995FF91EF91AD
:100D0000BF91AF919F918F917F916F915F914F9123
:100D10003F912F910F900BBE0F900FBE0F901F9021
:100D200018951F920F920FB60F9211240BB60F92C7
:100D30002F933F934F935F936F937F938F939F93E3
:100D4000AF93BF93EF93FF93E0910A02F0910B02F0
:100D50001995FF91EF91BF91AF919F918F917F91E5
:100D60006F915F914F913F912F910F900BBE0F901C
:100D70000FBE0F901F9018951F920F920FB60F92F3
:100D800011240BB60F922F933F934F935F936F9362
:100D90007F938F939F93AF93BF93EF93FF93E091D4
:100DA0000802F09109021995FF91EF91BF91AF915F
:100DB0009F918F917F916F915F914F913F912F9173
:100DC0000F900BBE0F900FBE0F901F9018951F92A3
:100DD0000F920FB60F9211240BB60F922F933F93E1
:100DE0004F935F936F937F938F939F93AF93BF9333
:100DF000EF93FF93E0910602F09107021995FF919E
:100E0000EF91BF91AF919F918F917F916F915F9182
:100E10004F913F912F910F900BBE0F900FBE0F90EF
:100E20001F9018951F920F920FB60F9211240BB6B8
:100E30000F922F933F934F935F936F937F938F9373
:100E40009F93AF93BF93EF93FF93E0910402F091D0
:100E500005021995FF91EF91BF91AF919F918F91ED
:100E60007F916F915F914F913F912F910F900BBEAA
:100E70000F900FBE0F901F9018951F920F920FB6F4
:100E80000F9211240BB60F922F933F934F935F93C2
:100E90006F937F938F939F93AF93BF93EF93FF9342
:100EA0008091B900887F803609F44DC008F040C0B9
:100EB000883209F4A7C028F5803109F49BC0C8F432
:100EC000882309F4F7C0883009F494C0FF91EF91AA
:100ED000BF91AF919F918F917F916F915F914F9152
:100EE0003F912F910F900BBE0F900FBE0F901F9050
:100EF0001895883109F486C0803241F78093010348
:100F000014C0803409F49BC040F48033B9F38833B3
:100F1000E9F68093010385ECAEC0803509F483C007
:100F2000883509F494C0883489F60E946305CECFD1
:100F3000883909F48AC038F5883729F050F48836A2
:100F400011F0803719F683E0809303031092DC02DE
:100F500055C0883809F479C0803919F0803809F013
:100F6000B5CF8091DC02803208F06FC0E091DC02E6
:100F700081E08E0F8093DC028091BB00F0E0E454AE
:100F8000FD4F80833BC0803B39F0D0F4803A09F4B8
:100F900077C0883A09F09ACF84E0809303031092D7
:100FA000BB021092BA02F0E0E0E019958091BA021B
:100FB00081110FC081E08093BA0210929A0209C099
:100FC000803C09F4A8CF883C09F4A5CF883B09F000
:100FD0007DCFE091BB0281E08E0F8093BB02F0E0F9
:100FE000E656FD4F80818093BB009091BB028091BB
:100FF000BA0229C08091DE028093BB0085EC809309
:10100000BC0064CF909100038091FF02981758F5BF
:10101000E091000381E08E0F80930003F0E0E15245
:10102000FD4F8081E9CFE091000381E08E0F809336
:1010300000038091BB00F0E0E152FD4F808390916E
:1010400000038091FF029817C8F285E8D8CFE0919D
:10105000000381E08E0F809300038091BB00F0E0DD
:10106000E152FD4F80838091020381115ECF81E0C8
:101070008093DD0284EA8093BC001092030326CFA4
:1010800085EC8093BC00109203038091DC028032D7
:1010900030F4E091DC02F0E0E454FD4F1082609106
:1010A000DC0270E08CEB92E0F0E0E0E01995109249
:1010B000DC020CCF1092010338CFE0E4F3E013829E
:1010C000128288EE93E0A0E0B0E084839583A6834B
:1010D000B7838CE192E091838083ECE4F3E01382A8
:1010E00012828EE292E09183808380E2848380E1A9
:1010F000818782E0828713860895789484B5826020
:1011000084BD84B5816084BD85B5826085BD85B5AB
:10111000816085BD80916E00816080936E00109229
:1011200081008091810082608093810080918100A4
:101130008160809381008091800081608093800035
:101140008091B10084608093B1008091B000816093
:101150008093B00080919100826080939100809193
:1011600091008160809391008091900081608093D4
:1011700090008091A10082608093A1008091A100E5
:1011800081608093A1008091A00081608093A00085
:1011900080912101826080932101809121018160F1
:1011A00080932101809120018160809320018091B2
:1011B0007A00846080937A0080917A0082608093C4
:1011C0007A0080917A00816080937A0080917A0021
:1011D000806880937A001092C100809151038860EA
:1011E0008093510312E01093540362E370E080E0B7
:1011F00090E00E946102609157038CE493E00E94AA
:10120000830368EE73E080E090E00E94610260E397
:101210008CE493E00E94C804CBE4D6E4CE010197AD
:10122000F1F760E38CE493E00E94C8042197F1F7A2
:1012300060E38CE493E00E94C80483E592E00197A8
:10124000F1F760E28CE493E00E94C80460915103DE
:10125000606240E08CE493E00E94E10484E08093CB
:10126000520340E06CE08CE493E00E94E1040E94B1
:1012700029051093530340E066E08CE493E00E945C
:10128000E10440E062E08CE493E00E94E1048BE33F
:101290009FE10197F1F788E08093570360E08CE4C9
:1012A00093E00E94830383E992E09093010280938C
:1012B000000280916A00836080936A00EC9A82EA5F
:1012C00092E0909303028093020280916A008C6006
:1012D00080936A00ED9A8BE691E090930B028093E5
:1012E0000A0280916900806C80936900EB9A85E71F
:1012F00091E09093090280930802809169008063D5
:1013000080936900EA9AE9E2F2E02491E3EEF1E0E9
:101310008491882399F090E0880F991FFC01E8538D
:10132000FE4FA591B491FC01E255FE4F8591949139
:101330008FB7F894EC91E22BEC938FBF60E080E0E4
:101340000E94F80486E392E00E94BB0461E080E022
:101350000E94F80485E492E00E94BB0468EE73E00A
:1013600080E090E00E9461020E94290560E080E038
:101370000E94F80482E592E00E94BB0461E085E0EF
:101380000E94F80482E692E00E94BB0402E010E0B2
:10139000CCE3D0E080E0E82E80E0F82E80913E03A0
:1013A00090913F03B8010E94D00A019709F089C0CB
:1013B00080913C0390913D03181619060CF059C01A
:1013C00064EF71E080E090E00E94610280913C0354
:1013D00090913D03019790933D0380933C0380914E
:1013E0003C0390913D03BE010E94D00ACB01BE0197
:1013F0000E94D00A90933B0380933A0380913C0370
:1014000090913D03BE010E94D00A909339038093CE
:10141000380360E080E00E94F80488E692E00E94D1
:10142000BB0461E085E00E94F80480913A0390914A
:101430003B030A9724F486E692E00E94BB04809165
:101440003A0390913B030E943A0588E792E00E949C
:10145000BB0480913803909139030A9724F486E6FF
:1014600092E00E94BB0480913803909139030E945E
:101470003A0580913C0390913D03892B09F08ECF72
:1014800061E081E00E94B00160E080E00E94F80429
:101490008AE792E00E94BB0461E080E00E94F804C9
:1014A0008AE892E00E94BB0468EB7BE080E090E079
:1014B0000E9461020E94290510923F0310923E0390
:1014C0006DCF80913E0380FD64C080913603909182
:1014D00037031816190644F410923D0310923C038A
:1014E000109237031092360360E081E00E94B00151
:1014F00064EF71E080E090E00E94610280913C0323
:1015000090913D03BE010E94D00ACB01BE010E9412
:10151000D00A90933B0380933A0380913C039091CF
:101520003D03BE010E94D00A909339038093380393
:1015300060E080E00E94F80482E592E00E94BB0433
:1015400061E085E00E94F80480913A0390913B03AA
:101550000A9724F486E692E00E94BB0480913A0345
:1015600090913B030E943A0588E792E00E94BB04F9
:1015700080913803909139030A9724F486E692E02B
:101580000E94BB0480913803909139030E943A0570
:1015900098CFE114F10409F401CF0E940000FECEBF
:1015A00097FB072E16F4009407D077FD09D00E9410
:1015B0000E0B07FC05D03EF4909581959F4F089542
:1015C000709561957F4F0895A1E21A2EAA1BBB1B4F
:1015D000FD010DC0AA1FBB1FEE1FFF1FA217B307FF
:1015E000E407F50720F0A21BB30BE40BF50B661F15
:1015F000771F881F991F1A9469F7609570958095D9
:1016000090959B01AC01BD01CF010895EE0FFF1F26
:10161000881F8BBF0790F691E02D1994AA1BBB1B66
:1016200051E107C0AA1FBB1FA617B70710F0A61BE2
:10163000B70B881F991F5A95A9F780959095BC0103
:08164000CD010895F894FFCFDD
:10164800B102B102B102B102B102B102B102B102FA
:101658000000400014005400000000005403270359
:101668006A04190320031D031A030000000034054F
:1016780083016A04B202202054656D706F72697A22
:1016880061646F72002020202045717569706F2099
:10169800360020456C65676972207469656D706FE6
:1016A800200030303A303000202020436F727269B9
:1016B800656E646F202020003A0020202020202022
:1016C8002020202020202020200020202046696E75
:0816D800616C697A61646F0026
:00000001FF
